{
  "contractName": "bidwicket",
  "abi": [
    {
      "inputs": [],
      "stateMutability": "nonpayable",
      "type": "constructor"
    },
    {
      "inputs": [],
      "name": "state",
      "outputs": [
        {
          "internalType": "enum bidwicket.Phase",
          "name": "",
          "type": "uint8"
        }
      ],
      "stateMutability": "view",
      "type": "function",
      "constant": true
    },
    {
      "inputs": [
        {
          "internalType": "uint256",
          "name": "price",
          "type": "uint256"
        }
      ],
      "name": "register",
      "outputs": [],
      "stateMutability": "payable",
      "type": "function",
      "payable": true
    },
    {
      "inputs": [
        {
          "internalType": "address",
          "name": "playerAddr",
          "type": "address"
        }
      ],
      "name": "buy",
      "outputs": [],
      "stateMutability": "payable",
      "type": "function",
      "payable": true
    },
    {
      "inputs": [
        {
          "internalType": "enum bidwicket.Phase",
          "name": "newPhase",
          "type": "uint8"
        }
      ],
      "name": "changePhase",
      "outputs": [],
      "stateMutability": "nonpayable",
      "type": "function"
    },
    {
      "inputs": [
        {
          "internalType": "address",
          "name": "playerAddr",
          "type": "address"
        }
      ],
      "name": "bid",
      "outputs": [
        {
          "internalType": "uint256",
          "name": "bidValue",
          "type": "uint256"
        },
        {
          "internalType": "address",
          "name": "bidderAddress",
          "type": "address"
        }
      ],
      "stateMutability": "payable",
      "type": "function",
      "payable": true
    },
    {
      "inputs": [],
      "name": "withdraw",
      "outputs": [],
      "stateMutability": "payable",
      "type": "function",
      "payable": true
    },
    {
      "inputs": [],
      "name": "getCurrentBidInfo",
      "outputs": [
        {
          "internalType": "uint256",
          "name": "bidValue",
          "type": "uint256"
        },
        {
          "internalType": "address",
          "name": "bidAddress",
          "type": "address"
        }
      ],
      "stateMutability": "view",
      "type": "function",
      "constant": true
    },
    {
      "inputs": [],
      "name": "getCurrentPhase",
      "outputs": [
        {
          "internalType": "enum bidwicket.Phase",
          "name": "currentPhase",
          "type": "uint8"
        }
      ],
      "stateMutability": "view",
      "type": "function",
      "constant": true
    }
  ],
  "bytecode": "0x60806040526000600360006101000a81548160ff0219169083600281111561002a57610029610086565b5b0217905550600060045534801561004057600080fd5b50336000806101000a81548173ffffffffffffffffffffffffffffffffffffffff021916908373ffffffffffffffffffffffffffffffffffffffff1602179055506100b5565b7f4e487b7100000000000000000000000000000000000000000000000000000000600052602160045260246000fd5b611369806100c46000396000f3fe60806040526004361061007b5760003560e01c8063b974b6071161004e578063b974b6071461010f578063c19d93fb1461013b578063f088d54714610166578063f207564e146101825761007b565b80630721c297146100805780633ccfd60b146100a95780639cf5453d146100b3578063a3a40ea5146100e4575b600080fd5b34801561008c57600080fd5b506100a760048036038101906100a29190610e3a565b61019e565b005b6100b16103e1565b005b6100cd60048036038101906100c89190610ec5565b610643565b6040516100db929190610f1a565b60405180910390f35b3480156100f057600080fd5b506100f9610909565b6040516101069190610fba565b60405180910390f35b34801561011b57600080fd5b50610124610920565b604051610132929190610f1a565b60405180910390f35b34801561014757600080fd5b50610150610951565b60405161015d9190610fba565b60405180910390f35b610180600480360381019061017b9190610ec5565b610964565b005b61019c60048036038101906101979190611001565b610bfa565b005b60008054906101000a900473ffffffffffffffffffffffffffffffffffffffff1673ffffffffffffffffffffffffffffffffffffffff163373ffffffffffffffffffffffffffffffffffffffff161461022c576040517f08c379a00000000000000000000000000000000000000000000000000000000081526004016102239061108b565b60405180910390fd5b60028081111561023f5761023e610f43565b5b600360009054906101000a900460ff16600281111561026157610260610f43565b5b036103b4576000600660009054906101000a900473ffffffffffffffffffffffffffffffffffffffff1690508073ffffffffffffffffffffffffffffffffffffffff166108fc6004549081150290604051600060405180830381858888f193505050501580156102d5573d6000803e3d6000fd5b506000600481905550600060026000600660009054906101000a900473ffffffffffffffffffffffffffffffffffffffff1673ffffffffffffffffffffffffffffffffffffffff1673ffffffffffffffffffffffffffffffffffffffff16815260200190815260200160002060020181905550600060026000600660009054906101000a900473ffffffffffffffffffffffffffffffffffffffff1673ffffffffffffffffffffffffffffffffffffffff1673ffffffffffffffffffffffffffffffffffffffff16815260200190815260200160002060010181905550505b80600360006101000a81548160ff021916908360028111156103d9576103d8610f43565b5b021790555050565b6001600260003373ffffffffffffffffffffffffffffffffffffffff1673ffffffffffffffffffffffffffffffffffffffff1681526020019081526020016000206002015414610466576040517f08c379a000000000000000000000000000000000000000000000000000000000815260040161045d906110f7565b60405180910390fd5b600560009054906101000a900473ffffffffffffffffffffffffffffffffffffffff1673ffffffffffffffffffffffffffffffffffffffff163373ffffffffffffffffffffffffffffffffffffffff16036104c057600080fd5b6000600260003373ffffffffffffffffffffffffffffffffffffffff1673ffffffffffffffffffffffffffffffffffffffff168152602001908152602001600020600101549050600260003373ffffffffffffffffffffffffffffffffffffffff1673ffffffffffffffffffffffffffffffffffffffff16815260200190815260200160002060000160009054906101000a900473ffffffffffffffffffffffffffffffffffffffff1673ffffffffffffffffffffffffffffffffffffffff166108fc829081150290604051600060405180830381858888f193505050501580156105af573d6000803e3d6000fd5b506000600260003373ffffffffffffffffffffffffffffffffffffffff1673ffffffffffffffffffffffffffffffffffffffff168152602001908152602001600020600201819055506000600260003373ffffffffffffffffffffffffffffffffffffffff1673ffffffffffffffffffffffffffffffffffffffff1681526020019081526020016000206001018190555050565b6000806000600260003373ffffffffffffffffffffffffffffffffffffffff1673ffffffffffffffffffffffffffffffffffffffff16815260200190815260200160002060020154146106cb576040517f08c379a00000000000000000000000000000000000000000000000000000000081526004016106c290611163565b60405180910390fd5b600160028111156106df576106de610f43565b5b600360009054906101000a900460ff16600281111561070157610700610f43565b5b14610741576040517f08c379a0000000000000000000000000000000000000000000000000000000008152600401610738906111cf565b60405180910390fd5b33600260003373ffffffffffffffffffffffffffffffffffffffff1673ffffffffffffffffffffffffffffffffffffffff16815260200190815260200160002060000160006101000a81548173ffffffffffffffffffffffffffffffffffffffff021916908373ffffffffffffffffffffffffffffffffffffffff16021790555034600260003373ffffffffffffffffffffffffffffffffffffffff1673ffffffffffffffffffffffffffffffffffffffff168152602001908152602001600020600101819055506001600260003373ffffffffffffffffffffffffffffffffffffffff1673ffffffffffffffffffffffffffffffffffffffff168152602001908152602001600020600201819055503460048190555033600560006101000a81548173ffffffffffffffffffffffffffffffffffffffff021916908373ffffffffffffffffffffffffffffffffffffffff1602179055506004549150600560009054906101000a900473ffffffffffffffffffffffffffffffffffffffff16905082600660006101000a81548173ffffffffffffffffffffffffffffffffffffffff021916908373ffffffffffffffffffffffffffffffffffffffff160217905550915091565b6000600360009054906101000a900460ff16905090565b6000806004549150600560009054906101000a900473ffffffffffffffffffffffffffffffffffffffff1690509091565b600360009054906101000a900460ff1681565b8060011515600160008373ffffffffffffffffffffffffffffffffffffffff1673ffffffffffffffffffffffffffffffffffffffff16815260200190815260200160002060010160009054906101000a900460ff161515146109fb576040517f08c379a00000000000000000000000000000000000000000000000000000000081526004016109f29061123b565b60405180910390fd5b3373ffffffffffffffffffffffffffffffffffffffff1631341115610a55576040517f08c379a0000000000000000000000000000000000000000000000000000000008152600401610a4c906112a7565b60405180910390fd5b8160001515600160008373ffffffffffffffffffffffffffffffffffffffff1673ffffffffffffffffffffffffffffffffffffffff16815260200190815260200160002060010160159054906101000a900460ff16151514610aec576040517f08c379a0000000000000000000000000000000000000000000000000000000008152600401610ae390611313565b60405180910390fd5b6000349050600160008573ffffffffffffffffffffffffffffffffffffffff1673ffffffffffffffffffffffffffffffffffffffff16815260200190815260200160002060010160019054906101000a900473ffffffffffffffffffffffffffffffffffffffff1673ffffffffffffffffffffffffffffffffffffffff166108fc829081150290604051600060405180830381858888f19350505050158015610b99573d6000803e3d6000fd5b5060018060003373ffffffffffffffffffffffffffffffffffffffff1673ffffffffffffffffffffffffffffffffffffffff16815260200190815260200160002060010160156101000a81548160ff02191690831515021790555050505050565b60001515600160003373ffffffffffffffffffffffffffffffffffffffff1673ffffffffffffffffffffffffffffffffffffffff16815260200190815260200160002060010160009054906101000a900460ff16151514610c90576040517f08c379a0000000000000000000000000000000000000000000000000000000008152600401610c8790611313565b60405180910390fd5b80600160003373ffffffffffffffffffffffffffffffffffffffff1673ffffffffffffffffffffffffffffffffffffffff1681526020019081526020016000206000018190555060018060003373ffffffffffffffffffffffffffffffffffffffff1673ffffffffffffffffffffffffffffffffffffffff16815260200190815260200160002060010160006101000a81548160ff02191690831515021790555033600160003373ffffffffffffffffffffffffffffffffffffffff1673ffffffffffffffffffffffffffffffffffffffff16815260200190815260200160002060010160016101000a81548173ffffffffffffffffffffffffffffffffffffffff021916908373ffffffffffffffffffffffffffffffffffffffff1602179055506000600160003373ffffffffffffffffffffffffffffffffffffffff1673ffffffffffffffffffffffffffffffffffffffff16815260200190815260200160002060010160156101000a81548160ff02191690831515021790555050565b600080fd5b60038110610e2257600080fd5b50565b600081359050610e3481610e15565b92915050565b600060208284031215610e5057610e4f610e10565b5b6000610e5e84828501610e25565b91505092915050565b600073ffffffffffffffffffffffffffffffffffffffff82169050919050565b6000610e9282610e67565b9050919050565b610ea281610e87565b8114610ead57600080fd5b50565b600081359050610ebf81610e99565b92915050565b600060208284031215610edb57610eda610e10565b5b6000610ee984828501610eb0565b91505092915050565b6000819050919050565b610f0581610ef2565b82525050565b610f1481610e87565b82525050565b6000604082019050610f2f6000830185610efc565b610f3c6020830184610f0b565b9392505050565b7f4e487b7100000000000000000000000000000000000000000000000000000000600052602160045260246000fd5b60038110610f8357610f82610f43565b5b50565b6000819050610f9482610f72565b919050565b6000610fa482610f86565b9050919050565b610fb481610f99565b82525050565b6000602082019050610fcf6000830184610fab565b92915050565b610fde81610ef2565b8114610fe957600080fd5b50565b600081359050610ffb81610fd5565b92915050565b60006020828403121561101757611016610e10565b5b600061102584828501610fec565b91505092915050565b600082825260208201905092915050565b7f4f6e6c792061756374696f6e6565722063616e206368616e6765207068617365600082015250565b600061107560208361102e565b91506110808261103f565b602082019050919050565b600060208201905081810360008301526110a481611068565b9050919050565b7f42696464657220646f65736e2774206861766520616e206f6c64426964000000600082015250565b60006110e1601d8361102e565b91506110ec826110ab565b602082019050919050565b60006020820190508181036000830152611110816110d4565b9050919050565b7f426964646572206e6565647320746f207769746864726177206f6c6442696400600082015250565b600061114d601f8361102e565b915061115882611117565b602082019050919050565b6000602082019050818103600083015261117c81611140565b9050919050565b7f4e6f7420696e2076616c69642073746174650000000000000000000000000000600082015250565b60006111b960128361102e565b91506111c482611183565b602082019050919050565b600060208201905081810360008301526111e8816111ac565b9050919050565b7f506c61796572206e6f7420726567697374657265640000000000000000000000600082015250565b600061122560158361102e565b9150611230826111ef565b602082019050919050565b6000602082019050818103600083015261125481611218565b9050919050565b7f496e73756666696369656e742062616c616e6365000000000000000000000000600082015250565b600061129160148361102e565b915061129c8261125b565b602082019050919050565b600060208201905081810360008301526112c081611284565b9050919050565b7f506c6179657220616c7265616479207265676973746572656400000000000000600082015250565b60006112fd60198361102e565b9150611308826112c7565b602082019050919050565b6000602082019050818103600083015261132c816112f0565b905091905056fea264697066735822122024de9b19d89bfe73bcb587597075a051432407badab76dd92b44564ffc4e778264736f6c634300080d0033",
  "immutableReferences": {},
  "source": "// SPDX-License-Identifier: MIT\r\npragma solidity >=0.4.22 <0.9.0;\r\n\r\ncontract bidwicket {\r\n  address auctioneer;\r\n  struct playerInfo\r\n  {\r\n    uint price;\r\n    bool registered;\r\n    address payable addr;\r\n    bool alreadySold;\r\n  }\r\n\r\n  struct buyerInfo\r\n  {\r\n    address payable addr;\r\n    uint amount;\r\n    uint status;\r\n  }\r\n\r\n  mapping (address=>playerInfo) playerMembership;\r\n  mapping (address=>buyerInfo) buyers;\r\n  enum Phase{init,bid,done}\r\n  Phase public state = Phase.init;\r\n  uint currentBidValue = 0;\r\n  address currentBidderAddress;\r\n  address currentPlayerInAuction;\r\n\r\n  constructor() {\r\n    auctioneer = msg.sender;\r\n  }\r\n\r\n  modifier onlyRegisteredPlayer(address playerAddr)\r\n  {\r\n    require(playerMembership[playerAddr].registered == true,\"Player not registered\");\r\n    _;\r\n  }\r\n\r\n  modifier buyerBalance()\r\n  {\r\n    require(msg.value <= msg.sender.balance, \"Insufficient balance\");\r\n    _;\r\n  }\r\n\r\n  modifier alreadyRegistered()\r\n  {\r\n    require(playerMembership[msg.sender].registered == false,\"Player already registered\");\r\n    _;\r\n  }\r\n\r\n  modifier alreadySold(address playerAddr)\r\n  {\r\n    require(playerMembership[playerAddr].alreadySold == false,\"Player already registered\");\r\n    _;\r\n  }\r\n\r\n  modifier isBiddingPhase()\r\n  {\r\n    require(state == Phase.bid);\r\n    _;\r\n  }\r\n\r\n  modifier newBid()\r\n  {\r\n    require(buyers[msg.sender].status == 0,\"Bidder needs to withdraw oldBid\");\r\n    _;\r\n  }\r\n\r\n  modifier alreadyBidded()\r\n  {\r\n    require(buyers[msg.sender].status == 1,\"Bidder doesn't have an oldBid\");\r\n    _;\r\n  }\r\n\r\n  modifier onlyAuctioneer()\r\n  {\r\n    require(msg.sender == auctioneer,\"Only auctioneer can change phase\");\r\n    _;\r\n  }\r\n\r\n  modifier notCurrentHighestBidder()\r\n  {\r\n    require(msg.sender != currentBidderAddress);\r\n    _;\r\n  }\r\n\r\n  modifier checkBidPhase()\r\n  {\r\n    require(state == Phase.bid,\"Not in valid state\");\r\n    _;\r\n  }\r\n\r\n  function register(uint price) public payable alreadyRegistered\r\n  {\r\n    playerMembership[msg.sender].price = price;\r\n    playerMembership[msg.sender].registered = true;\r\n    playerMembership[msg.sender].addr = payable(msg.sender);\r\n    playerMembership[msg.sender].alreadySold = false;\r\n  }\r\n\r\n  function buy(address playerAddr) public payable onlyRegisteredPlayer(playerAddr) buyerBalance alreadySold(playerAddr)\r\n  { \r\n    uint amount = msg.value;\r\n    playerMembership[playerAddr].addr.transfer(amount);\r\n    playerMembership[msg.sender].alreadySold = true;\r\n  }\r\n\r\n  function changePhase(Phase newPhase) public onlyAuctioneer\r\n  { \r\n    if(state == Phase.done){\r\n      address payable transferAcc = payable(currentPlayerInAuction);\r\n      transferAcc.transfer(currentBidValue);\r\n      currentBidValue = 0;\r\n      buyers[currentPlayerInAuction].status = 0;\r\n      buyers[currentPlayerInAuction].amount = 0;\r\n    }\r\n    state = newPhase;\r\n  }\r\n\r\n\r\n  function bid(address playerAddr) public payable newBid checkBidPhase returns (uint bidValue,address bidderAddress)\r\n  {\r\n    buyers[msg.sender].addr = payable(msg.sender);\r\n    buyers[msg.sender].amount = msg.value;\r\n    buyers[msg.sender].status = 1;\r\n    currentBidValue = msg.value;\r\n    currentBidderAddress = msg.sender;\r\n    bidValue = currentBidValue;\r\n    bidderAddress = currentBidderAddress;\r\n    currentPlayerInAuction = playerAddr;\r\n  }\r\n\r\n  function withdraw() public payable alreadyBidded notCurrentHighestBidder\r\n  { \r\n    uint amount = buyers[msg.sender].amount;\r\n    buyers[msg.sender].addr.transfer(amount);\r\n    buyers[msg.sender].status = 0;\r\n    buyers[msg.sender].amount = 0;\r\n  }\r\n\r\n  function getCurrentBidInfo() public view returns (uint bidValue,address bidAddress)\r\n  {\r\n    bidValue = currentBidValue;\r\n    bidAddress = currentBidderAddress;\r\n  }\r\n\r\n  function getCurrentPhase() public view returns (Phase currentPhase)\r\n  {\r\n    currentPhase = state;\r\n  }\r\n\r\n}\r\n",
  "sourcePath": "E:\\Blockchain\\Project\\New_Code\\bid-wicket\\bidwicket-contract\\contracts\\bidwicket.sol",
  "compiler": {
    "name": "solc",
    "version": "0.8.13+commit.abaa5c0e.Emscripten.clang"
  },
  "schemaVersion": "3.4.7",
  "updatedAt": "2022-04-17T05:30:29.378Z",
  "networkType": "ethereum",
  "devdoc": {
    "kind": "dev",
    "methods": {},
    "version": 1
  },
  "userdoc": {
    "kind": "user",
    "methods": {},
    "version": 1
  }
}