{
  "contractName": "bidwicket",
  "abi": [
    {
      "inputs": [],
      "stateMutability": "nonpayable",
      "type": "constructor"
    },
    {
      "inputs": [
        {
          "internalType": "uint256",
          "name": "price",
          "type": "uint256"
        }
      ],
      "name": "register",
      "outputs": [],
      "stateMutability": "payable",
      "type": "function",
      "payable": true
    },
    {
      "inputs": [
        {
          "internalType": "address",
          "name": "playerAddr",
          "type": "address"
        }
      ],
      "name": "buy",
      "outputs": [],
      "stateMutability": "payable",
      "type": "function",
      "payable": true
    }
  ],
  "bytecode": "0x608060405234801561001057600080fd5b50336000806101000a81548173ffffffffffffffffffffffffffffffffffffffff021916908373ffffffffffffffffffffffffffffffffffffffff160217905550610406806100606000396000f3fe6080604052600436106100295760003560e01c8063f088d5471461002e578063f207564e1461004a575b600080fd5b610048600480360381019061004391906102dd565b610066565b005b610064600480360381019061005f9190610340565b6101d6565b005b8060011515600160008373ffffffffffffffffffffffffffffffffffffffff1673ffffffffffffffffffffffffffffffffffffffff16815260200190815260200160002060010160009054906101000a900460ff161515146100c757600080fd5b81600160008273ffffffffffffffffffffffffffffffffffffffff1673ffffffffffffffffffffffffffffffffffffffff16815260200190815260200160002060000154341461011657600080fd5b6000600134610125919061039c565b9050600160008573ffffffffffffffffffffffffffffffffffffffff1673ffffffffffffffffffffffffffffffffffffffff16815260200190815260200160002060010160019054906101000a900473ffffffffffffffffffffffffffffffffffffffff1673ffffffffffffffffffffffffffffffffffffffff166108fc829081150290604051600060405180830381858888f193505050501580156101cf573d6000803e3d6000fd5b5050505050565b80600160003373ffffffffffffffffffffffffffffffffffffffff1673ffffffffffffffffffffffffffffffffffffffff1681526020019081526020016000206000018190555060018060003373ffffffffffffffffffffffffffffffffffffffff1673ffffffffffffffffffffffffffffffffffffffff16815260200190815260200160002060010160006101000a81548160ff02191690831515021790555050565b600080fd5b600073ffffffffffffffffffffffffffffffffffffffff82169050919050565b60006102aa8261027f565b9050919050565b6102ba8161029f565b81146102c557600080fd5b50565b6000813590506102d7816102b1565b92915050565b6000602082840312156102f3576102f261027a565b5b6000610301848285016102c8565b91505092915050565b6000819050919050565b61031d8161030a565b811461032857600080fd5b50565b60008135905061033a81610314565b92915050565b6000602082840312156103565761035561027a565b5b60006103648482850161032b565b91505092915050565b7f4e487b7100000000000000000000000000000000000000000000000000000000600052601160045260246000fd5b60006103a78261030a565b91506103b28361030a565b9250828210156103c5576103c461036d565b5b82820390509291505056fea264697066735822122029a45d2714dd0970a30af325f0619b8c0438d46501322133dd6dcb42442680b864736f6c634300080d0033",
  "immutableReferences": {},
  "source": "// SPDX-License-Identifier: MIT\r\npragma solidity >=0.4.22 <0.9.0;\r\n\r\ncontract bidwicket {\r\n  address auctioneer;\r\n  struct playerInfo\r\n  {\r\n    uint price;\r\n    bool registered;\r\n    address payable addr;\r\n  }\r\n  mapping (address=>playerInfo) playerMembership;\r\n  mapping (address=>uint) buyers;\r\n\r\n  constructor() {\r\n    auctioneer = msg.sender;\r\n  }\r\n\r\n  modifier onlyRegisteredPlayer(address playerAddr)\r\n  {\r\n    require(playerMembership[playerAddr].registered == true);\r\n    _;\r\n  }\r\n  modifier validateBuy(address playerAddr)\r\n  {\r\n    require(msg.value == playerMembership[playerAddr].price);\r\n    _;\r\n  }\r\n\r\n  function register(uint price) public payable\r\n  {\r\n    playerMembership[msg.sender].price = price;\r\n    playerMembership[msg.sender].registered = true;\r\n  }\r\n\r\n  function buy(address playerAddr) public payable onlyRegisteredPlayer(playerAddr) validateBuy (playerAddr) \r\n  { \r\n    uint amount = msg.value - 1;\r\n    playerMembership[playerAddr].addr.transfer(amount);\r\n  }\r\n\r\n}\r\n",
  "sourcePath": "E:\\Blockchain\\Project\\New_Code\\bid-wicket\\bidwicket-contract\\contracts\\bidwicket.sol",
  "compiler": {
    "name": "solc",
    "version": "0.8.13+commit.abaa5c0e.Emscripten.clang"
  },
  "schemaVersion": "3.4.7",
  "updatedAt": "2022-04-14T19:54:26.324Z",
  "networkType": "ethereum",
  "devdoc": {
    "kind": "dev",
    "methods": {},
    "version": 1
  },
  "userdoc": {
    "kind": "user",
    "methods": {},
    "version": 1
  }
}