{
  "contractName": "bidwicket",
  "abi": [
    {
      "inputs": [],
      "stateMutability": "nonpayable",
      "type": "constructor"
    },
    {
      "inputs": [],
      "name": "state",
      "outputs": [
        {
          "internalType": "enum bidwicket.Phase",
          "name": "",
          "type": "uint8"
        }
      ],
      "stateMutability": "view",
      "type": "function",
      "constant": true
    },
    {
      "inputs": [
        {
          "internalType": "uint256",
          "name": "price",
          "type": "uint256"
        }
      ],
      "name": "register",
      "outputs": [],
      "stateMutability": "payable",
      "type": "function",
      "payable": true
    },
    {
      "inputs": [
        {
          "internalType": "address",
          "name": "playerAddr",
          "type": "address"
        }
      ],
      "name": "buy",
      "outputs": [],
      "stateMutability": "payable",
      "type": "function",
      "payable": true
    },
    {
      "inputs": [
        {
          "internalType": "enum bidwicket.Phase",
          "name": "newPhase",
          "type": "uint8"
        }
      ],
      "name": "changePhase",
      "outputs": [],
      "stateMutability": "nonpayable",
      "type": "function"
    },
    {
      "inputs": [],
      "name": "bid",
      "outputs": [],
      "stateMutability": "payable",
      "type": "function",
      "payable": true
    },
    {
      "inputs": [],
      "name": "withdraw",
      "outputs": [],
      "stateMutability": "payable",
      "type": "function",
      "payable": true
    },
    {
      "inputs": [],
      "name": "getCurrentBidInfo",
      "outputs": [
        {
          "internalType": "uint256",
          "name": "bidValue",
          "type": "uint256"
        },
        {
          "internalType": "address",
          "name": "bidAddress",
          "type": "address"
        }
      ],
      "stateMutability": "view",
      "type": "function",
      "constant": true
    }
  ],
  "bytecode": "0x60806040526000600360006101000a81548160ff0219169083600281111561002a57610029610086565b5b0217905550600060045534801561004057600080fd5b50336000806101000a81548173ffffffffffffffffffffffffffffffffffffffff021916908373ffffffffffffffffffffffffffffffffffffffff1602179055506100b5565b7f4e487b7100000000000000000000000000000000000000000000000000000000600052602160045260246000fd5b610e73806100c46000396000f3fe6080604052600436106100705760003560e01c8063b974b6071161004e578063b974b607146100b2578063c19d93fb146100de578063f088d54714610109578063f207564e1461012557610070565b80630721c297146100755780631998aeef1461009e5780633ccfd60b146100a8575b600080fd5b34801561008157600080fd5b5061009c600480360381019061009791906109b0565b610141565b005b6100a66101fc565b005b6100b06103db565b005b3480156100be57600080fd5b506100c76105e3565b6040516100d5929190610a37565b60405180910390f35b3480156100ea57600080fd5b506100f3610614565b6040516101009190610ad7565b60405180910390f35b610123600480360381019061011e9190610b1e565b610627565b005b61013f600480360381019061013a9190610b77565b6107cb565b005b60008054906101000a900473ffffffffffffffffffffffffffffffffffffffff1673ffffffffffffffffffffffffffffffffffffffff163373ffffffffffffffffffffffffffffffffffffffff16146101cf576040517f08c379a00000000000000000000000000000000000000000000000000000000081526004016101c690610c01565b60405180910390fd5b80600360006101000a81548160ff021916908360028111156101f4576101f3610a60565b5b021790555050565b6000600260003373ffffffffffffffffffffffffffffffffffffffff1673ffffffffffffffffffffffffffffffffffffffff1681526020019081526020016000206002015414610281576040517f08c379a000000000000000000000000000000000000000000000000000000000815260040161027890610c6d565b60405180910390fd5b33600260003373ffffffffffffffffffffffffffffffffffffffff1673ffffffffffffffffffffffffffffffffffffffff16815260200190815260200160002060000160006101000a81548173ffffffffffffffffffffffffffffffffffffffff021916908373ffffffffffffffffffffffffffffffffffffffff16021790555034600260003373ffffffffffffffffffffffffffffffffffffffff1673ffffffffffffffffffffffffffffffffffffffff168152602001908152602001600020600101819055506001600260003373ffffffffffffffffffffffffffffffffffffffff1673ffffffffffffffffffffffffffffffffffffffff168152602001908152602001600020600201819055503460048190555033600560006101000a81548173ffffffffffffffffffffffffffffffffffffffff021916908373ffffffffffffffffffffffffffffffffffffffff160217905550565b6001600260003373ffffffffffffffffffffffffffffffffffffffff1673ffffffffffffffffffffffffffffffffffffffff1681526020019081526020016000206002015414610460576040517f08c379a000000000000000000000000000000000000000000000000000000000815260040161045790610cd9565b60405180910390fd5b6000600260003373ffffffffffffffffffffffffffffffffffffffff1673ffffffffffffffffffffffffffffffffffffffff168152602001908152602001600020600101549050600260003373ffffffffffffffffffffffffffffffffffffffff1673ffffffffffffffffffffffffffffffffffffffff16815260200190815260200160002060000160009054906101000a900473ffffffffffffffffffffffffffffffffffffffff1673ffffffffffffffffffffffffffffffffffffffff166108fc829081150290604051600060405180830381858888f1935050505015801561054f573d6000803e3d6000fd5b506000600260003373ffffffffffffffffffffffffffffffffffffffff1673ffffffffffffffffffffffffffffffffffffffff168152602001908152602001600020600201819055506000600260003373ffffffffffffffffffffffffffffffffffffffff1673ffffffffffffffffffffffffffffffffffffffff1681526020019081526020016000206001018190555050565b6000806004549150600560009054906101000a900473ffffffffffffffffffffffffffffffffffffffff1690509091565b600360009054906101000a900460ff1681565b8060011515600160008373ffffffffffffffffffffffffffffffffffffffff1673ffffffffffffffffffffffffffffffffffffffff16815260200190815260200160002060010160009054906101000a900460ff161515146106be576040517f08c379a00000000000000000000000000000000000000000000000000000000081526004016106b590610d45565b60405180910390fd5b3373ffffffffffffffffffffffffffffffffffffffff1631341115610718576040517f08c379a000000000000000000000000000000000000000000000000000000000815260040161070f90610db1565b60405180910390fd5b6000349050600160008473ffffffffffffffffffffffffffffffffffffffff1673ffffffffffffffffffffffffffffffffffffffff16815260200190815260200160002060010160019054906101000a900473ffffffffffffffffffffffffffffffffffffffff1673ffffffffffffffffffffffffffffffffffffffff166108fc829081150290604051600060405180830381858888f193505050501580156107c5573d6000803e3d6000fd5b50505050565b60001515600160003373ffffffffffffffffffffffffffffffffffffffff1673ffffffffffffffffffffffffffffffffffffffff16815260200190815260200160002060010160009054906101000a900460ff16151514610861576040517f08c379a000000000000000000000000000000000000000000000000000000000815260040161085890610e1d565b60405180910390fd5b80600160003373ffffffffffffffffffffffffffffffffffffffff1673ffffffffffffffffffffffffffffffffffffffff1681526020019081526020016000206000018190555060018060003373ffffffffffffffffffffffffffffffffffffffff1673ffffffffffffffffffffffffffffffffffffffff16815260200190815260200160002060010160006101000a81548160ff02191690831515021790555033600160003373ffffffffffffffffffffffffffffffffffffffff1673ffffffffffffffffffffffffffffffffffffffff16815260200190815260200160002060010160016101000a81548173ffffffffffffffffffffffffffffffffffffffff021916908373ffffffffffffffffffffffffffffffffffffffff16021790555050565b600080fd5b6003811061099857600080fd5b50565b6000813590506109aa8161098b565b92915050565b6000602082840312156109c6576109c5610986565b5b60006109d48482850161099b565b91505092915050565b6000819050919050565b6109f0816109dd565b82525050565b600073ffffffffffffffffffffffffffffffffffffffff82169050919050565b6000610a21826109f6565b9050919050565b610a3181610a16565b82525050565b6000604082019050610a4c60008301856109e7565b610a596020830184610a28565b9392505050565b7f4e487b7100000000000000000000000000000000000000000000000000000000600052602160045260246000fd5b60038110610aa057610a9f610a60565b5b50565b6000819050610ab182610a8f565b919050565b6000610ac182610aa3565b9050919050565b610ad181610ab6565b82525050565b6000602082019050610aec6000830184610ac8565b92915050565b610afb81610a16565b8114610b0657600080fd5b50565b600081359050610b1881610af2565b92915050565b600060208284031215610b3457610b33610986565b5b6000610b4284828501610b09565b91505092915050565b610b54816109dd565b8114610b5f57600080fd5b50565b600081359050610b7181610b4b565b92915050565b600060208284031215610b8d57610b8c610986565b5b6000610b9b84828501610b62565b91505092915050565b600082825260208201905092915050565b7f4f6e6c792061756374696f6e6565722063616e206368616e6765207068617365600082015250565b6000610beb602083610ba4565b9150610bf682610bb5565b602082019050919050565b60006020820190508181036000830152610c1a81610bde565b9050919050565b7f426964646572206e6565647320746f207769746864726177206f6c6442696400600082015250565b6000610c57601f83610ba4565b9150610c6282610c21565b602082019050919050565b60006020820190508181036000830152610c8681610c4a565b9050919050565b7f42696464657220646f65736e2774206861766520616e206f6c64426964000000600082015250565b6000610cc3601d83610ba4565b9150610cce82610c8d565b602082019050919050565b60006020820190508181036000830152610cf281610cb6565b9050919050565b7f506c61796572206e6f7420726567697374657265640000000000000000000000600082015250565b6000610d2f601583610ba4565b9150610d3a82610cf9565b602082019050919050565b60006020820190508181036000830152610d5e81610d22565b9050919050565b7f496e73756666696369656e742062616c616e6365000000000000000000000000600082015250565b6000610d9b601483610ba4565b9150610da682610d65565b602082019050919050565b60006020820190508181036000830152610dca81610d8e565b9050919050565b7f506c6179657220616c7265616479207265676973746572656400000000000000600082015250565b6000610e07601983610ba4565b9150610e1282610dd1565b602082019050919050565b60006020820190508181036000830152610e3681610dfa565b905091905056fea26469706673582212200960acc5b82a3c8caf69a3773bc3763441ee3c2292ae46127120d90f979a61b864736f6c634300080d0033",
  "immutableReferences": {},
  "source": "// SPDX-License-Identifier: MIT\npragma solidity >=0.4.22 <0.9.0;\n\ncontract bidwicket {\n  address auctioneer;\n  struct playerInfo\n  {\n    uint price;\n    bool registered;\n    address payable addr;\n  }\n\n  struct buyerInfo\n  {\n    address payable addr;\n    uint amount;\n    uint status;\n  }\n\n  mapping (address=>playerInfo) playerMembership;\n  mapping (address=>buyerInfo) buyers;\n  enum Phase{init,bid,done}\n  Phase public state = Phase.init;\n  uint currentBidValue = 0;\n  address currentBidderAddress;\n\n  constructor() {\n    auctioneer = msg.sender;\n  }\n\n  modifier onlyRegisteredPlayer(address playerAddr)\n  {\n    require(playerMembership[playerAddr].registered == true,\"Player not registered\");\n    _;\n  }\n\n  modifier buyerBalance()\n  {\n    require(msg.value <= msg.sender.balance, \"Insufficient balance\");\n    _;\n  }\n\n  modifier alreadyRegistered()\n  {\n    require(playerMembership[msg.sender].registered == false,\"Player already registered\");\n    _;\n  }\n\n  modifier isBiddingPhase()\n  {\n    require(state == Phase.bid);\n    _;\n  }\n\n  modifier newBid()\n  {\n    require(buyers[msg.sender].status == 0,\"Bidder needs to withdraw oldBid\");\n    _;\n  }\n\n  modifier alreadyBidded()\n  {\n    require(buyers[msg.sender].status == 1,\"Bidder doesn't have an oldBid\");\n    _;\n  }\n\n  modifier onlyAuctioneer()\n  {\n    require(msg.sender == auctioneer,\"Only auctioneer can change phase\");\n    _;\n  }\n\n  function register(uint price) public payable alreadyRegistered\n  {\n    playerMembership[msg.sender].price = price;\n    playerMembership[msg.sender].registered = true;\n    playerMembership[msg.sender].addr = payable(msg.sender);\n  }\n\n  function buy(address playerAddr) public payable onlyRegisteredPlayer(playerAddr) buyerBalance\n  { \n    uint amount = msg.value;\n    playerMembership[playerAddr].addr.transfer(amount);\n  }\n\n  function changePhase(Phase newPhase) public onlyAuctioneer\n  {\n    state = newPhase;\n  }\n\n  function bid() public payable newBid\n  {\n    buyers[msg.sender].addr = payable(msg.sender);\n    buyers[msg.sender].amount = msg.value;\n    buyers[msg.sender].status = 1;\n    currentBidValue = msg.value;\n    currentBidderAddress = msg.sender;\n  }\n\n  function withdraw() public payable alreadyBidded\n  { \n    uint amount = buyers[msg.sender].amount;\n    buyers[msg.sender].addr.transfer(amount);\n    buyers[msg.sender].status = 0;\n    buyers[msg.sender].amount = 0;\n  }\n\n  function getCurrentBidInfo() public view returns (uint bidValue,address bidAddress)\n  {\n    bidValue = currentBidValue;\n    bidAddress = currentBidderAddress;\n  }\n\n}\n",
  "sourcePath": "/Users/ankitshetty/Code/course-work/sem-2/cse526-blockchain/bid-wicket/bidwicket-contract/contracts/bidwicket.sol",
  "compiler": {
    "name": "solc",
    "version": "0.8.13+commit.abaa5c0e.Emscripten.clang"
  },
  "schemaVersion": "3.4.6",
  "updatedAt": "2022-04-15T14:37:04.693Z",
  "networkType": "ethereum",
  "devdoc": {
    "kind": "dev",
    "methods": {},
    "version": 1
  },
  "userdoc": {
    "kind": "user",
    "methods": {},
    "version": 1
  }
}