{
  "contractName": "bidwicket",
  "abi": [
    {
      "inputs": [],
      "stateMutability": "nonpayable",
      "type": "constructor"
    },
    {
      "anonymous": false,
      "inputs": [
        {
          "indexed": true,
          "internalType": "address",
          "name": "owner",
          "type": "address"
        },
        {
          "indexed": true,
          "internalType": "address",
          "name": "spender",
          "type": "address"
        },
        {
          "indexed": false,
          "internalType": "uint256",
          "name": "value",
          "type": "uint256"
        }
      ],
      "name": "Approval",
      "type": "event"
    },
    {
      "anonymous": false,
      "inputs": [
        {
          "indexed": true,
          "internalType": "address",
          "name": "from",
          "type": "address"
        },
        {
          "indexed": true,
          "internalType": "address",
          "name": "to",
          "type": "address"
        },
        {
          "indexed": false,
          "internalType": "uint256",
          "name": "value",
          "type": "uint256"
        }
      ],
      "name": "Transfer",
      "type": "event"
    },
    {
      "inputs": [
        {
          "internalType": "address",
          "name": "owner",
          "type": "address"
        },
        {
          "internalType": "address",
          "name": "delegate",
          "type": "address"
        }
      ],
      "name": "allowance",
      "outputs": [
        {
          "internalType": "uint256",
          "name": "",
          "type": "uint256"
        }
      ],
      "stateMutability": "view",
      "type": "function",
      "constant": true
    },
    {
      "inputs": [
        {
          "internalType": "address",
          "name": "delegate",
          "type": "address"
        },
        {
          "internalType": "uint256",
          "name": "numTokens",
          "type": "uint256"
        }
      ],
      "name": "approve",
      "outputs": [
        {
          "internalType": "bool",
          "name": "",
          "type": "bool"
        }
      ],
      "stateMutability": "nonpayable",
      "type": "function"
    },
    {
      "inputs": [
        {
          "internalType": "address",
          "name": "tokenOwner",
          "type": "address"
        }
      ],
      "name": "balanceOf",
      "outputs": [
        {
          "internalType": "uint256",
          "name": "",
          "type": "uint256"
        }
      ],
      "stateMutability": "view",
      "type": "function",
      "constant": true
    },
    {
      "inputs": [],
      "name": "decimals",
      "outputs": [
        {
          "internalType": "uint8",
          "name": "",
          "type": "uint8"
        }
      ],
      "stateMutability": "view",
      "type": "function",
      "constant": true
    },
    {
      "inputs": [
        {
          "internalType": "uint256",
          "name": "numTokens",
          "type": "uint256"
        }
      ],
      "name": "getHeathereum",
      "outputs": [],
      "stateMutability": "nonpayable",
      "type": "function"
    },
    {
      "inputs": [],
      "name": "name",
      "outputs": [
        {
          "internalType": "string",
          "name": "",
          "type": "string"
        }
      ],
      "stateMutability": "view",
      "type": "function",
      "constant": true
    },
    {
      "inputs": [],
      "name": "state",
      "outputs": [
        {
          "internalType": "enum bidwicket.Phase",
          "name": "",
          "type": "uint8"
        }
      ],
      "stateMutability": "view",
      "type": "function",
      "constant": true
    },
    {
      "inputs": [],
      "name": "symbol",
      "outputs": [
        {
          "internalType": "string",
          "name": "",
          "type": "string"
        }
      ],
      "stateMutability": "view",
      "type": "function",
      "constant": true
    },
    {
      "inputs": [],
      "name": "totalSupply",
      "outputs": [
        {
          "internalType": "uint256",
          "name": "",
          "type": "uint256"
        }
      ],
      "stateMutability": "view",
      "type": "function",
      "constant": true
    },
    {
      "inputs": [
        {
          "internalType": "address",
          "name": "receiver",
          "type": "address"
        },
        {
          "internalType": "uint256",
          "name": "numTokens",
          "type": "uint256"
        }
      ],
      "name": "transfer",
      "outputs": [
        {
          "internalType": "bool",
          "name": "",
          "type": "bool"
        }
      ],
      "stateMutability": "nonpayable",
      "type": "function"
    },
    {
      "inputs": [
        {
          "internalType": "address",
          "name": "owner",
          "type": "address"
        },
        {
          "internalType": "address",
          "name": "buyer",
          "type": "address"
        },
        {
          "internalType": "uint256",
          "name": "numTokens",
          "type": "uint256"
        }
      ],
      "name": "transferFrom",
      "outputs": [
        {
          "internalType": "bool",
          "name": "",
          "type": "bool"
        }
      ],
      "stateMutability": "nonpayable",
      "type": "function"
    },
    {
      "inputs": [
        {
          "internalType": "uint256",
          "name": "price",
          "type": "uint256"
        }
      ],
      "name": "register",
      "outputs": [],
      "stateMutability": "payable",
      "type": "function",
      "payable": true
    },
    {
      "inputs": [
        {
          "internalType": "address",
          "name": "playerAddr",
          "type": "address"
        }
      ],
      "name": "buy",
      "outputs": [],
      "stateMutability": "payable",
      "type": "function",
      "payable": true
    },
    {
      "inputs": [
        {
          "internalType": "enum bidwicket.Phase",
          "name": "newPhase",
          "type": "uint8"
        }
      ],
      "name": "changePhase",
      "outputs": [],
      "stateMutability": "nonpayable",
      "type": "function"
    },
    {
      "inputs": [
        {
          "internalType": "address",
          "name": "playerAddr",
          "type": "address"
        }
      ],
      "name": "bid",
      "outputs": [
        {
          "internalType": "uint256",
          "name": "bidValue",
          "type": "uint256"
        },
        {
          "internalType": "address",
          "name": "bidderAddress",
          "type": "address"
        }
      ],
      "stateMutability": "payable",
      "type": "function",
      "payable": true
    },
    {
      "inputs": [],
      "name": "withdraw",
      "outputs": [],
      "stateMutability": "payable",
      "type": "function",
      "payable": true
    },
    {
      "inputs": [],
      "name": "getCurrentBidInfo",
      "outputs": [
        {
          "internalType": "uint256",
          "name": "bidValue",
          "type": "uint256"
        },
        {
          "internalType": "address",
          "name": "bidAddress",
          "type": "address"
        }
      ],
      "stateMutability": "view",
      "type": "function",
      "constant": true
    },
    {
      "inputs": [],
      "name": "getCurrentPhase",
      "outputs": [
        {
          "internalType": "enum bidwicket.Phase",
          "name": "currentPhase",
          "type": "uint8"
        }
      ],
      "stateMutability": "view",
      "type": "function",
      "constant": true
    },
    {
      "inputs": [
        {
          "internalType": "uint256",
          "name": "tok",
          "type": "uint256"
        }
      ],
      "name": "getHth",
      "outputs": [],
      "stateMutability": "payable",
      "type": "function",
      "payable": true
    }
  ],
  "bytecode": "0x60806040526007805460ff19169055600060085534801561001f57600080fd5b5060008054336001600160a01b0319918216811783556601c6bf5263400060038190558184526001602052604084205560048054909216179055610ec490819061006990396000f3fe6080604052600436106101145760003560e01c806395d89b41116100a0578063c19d93fb11610064578063c19d93fb1461033c578063dd62ed3e14610356578063f00aece71461039c578063f088d547146103af578063f207564e146103c257600080fd5b806395d89b411461027b5780639cf5453d146102aa578063a3a40ea5146102da578063a9059cbb146102fb578063b974b6071461031b57600080fd5b806323b872dd116100e757806323b872dd146101d6578063313ce567146101f657806332d103731461021d5780633ccfd60b1461023d57806370a082311461024557600080fd5b806306fdde03146101195780630721c29714610165578063095ea7b31461018757806318160ddd146101b7575b600080fd5b34801561012557600080fd5b5061014f6040518060400160405280600a8152602001694865617468657265756d60b01b81525081565b60405161015c9190610c77565b60405180910390f35b34801561017157600080fd5b50610185610180366004610ccc565b6103d5565b005b34801561019357600080fd5b506101a76101a2366004610d10565b6104ec565b604051901515815260200161015c565b3480156101c357600080fd5b506003545b60405190815260200161015c565b3480156101e257600080fd5b506101a76101f1366004610d3a565b610558565b34801561020257600080fd5b5061020b600481565b60405160ff909116815260200161015c565b34801561022957600080fd5b50610185610238366004610d76565b6106ae565b61018561075c565b34801561025157600080fd5b506101c8610260366004610d8f565b6001600160a01b031660009081526001602052604090205490565b34801561028757600080fd5b5061014f60405180604001604052806003815260200162090a8960eb1b81525081565b6102bd6102b8366004610d8f565b610840565b604080519283526001600160a01b0390911660208301520161015c565b3480156102e657600080fd5b5060075460ff165b60405161015c9190610dc0565b34801561030757600080fd5b506101a7610316366004610d10565b610980565b34801561032757600080fd5b506008546009546001600160a01b03166102bd565b34801561034857600080fd5b506007546102ee9060ff1681565b34801561036257600080fd5b506101c8610371366004610de8565b6001600160a01b03918216600090815260026020908152604080832093909416825291909152205490565b6101856103aa366004610d76565b610a35565b6101856103bd366004610d8f565b610a43565b6101856103d0366004610d76565b610bbd565b6004546001600160a01b031633146104345760405162461bcd60e51b815260206004820181905260248201527f4f6e6c792061756374696f6e6565722063616e206368616e676520706861736560448201526064015b60405180910390fd5b600260075460ff16600281111561044d5761044d610daa565b036104c557600a546008546040516001600160a01b0390921691829180156108fc02916000818181858888f1935050505015801561048f573d6000803e3d6000fd5b505060006008819055600a80546001600160a01b0390811683526006602052604080842060020184905591541682528120600101555b6007805482919060ff191660018360028111156104e4576104e4610daa565b021790555050565b3360008181526002602090815260408083206001600160a01b038716808552925280832085905551919290917f8c5be1e5ebec7d5bd14f71427d1e84f3dd0314c0f7b2291e5b200ac8c7c3b925906105479086815260200190565b60405180910390a350600192915050565b6001600160a01b03831660009081526001602052604081205482111561057d57600080fd5b6001600160a01b03841660009081526002602090815260408083203384529091529020548211156105ad57600080fd5b6001600160a01b0384166000908152600160205260409020546105d1908390610e31565b6001600160a01b0385166000908152600160209081526040808320939093556002815282822033835290522054610609908390610e31565b6001600160a01b038086166000908152600260209081526040808320338452825280832094909455918616815260019091522054610648908390610e48565b6001600160a01b0380851660008181526001602052604090819020939093559151908616907fddf252ad1be2c89b69c2b068fc378daa952ba7f163c4a11628f55a4df523b3ef9061069c9086815260200190565b60405180910390a35060019392505050565b600080546001600160a01b031681526001602052604090205481106106d257600080fd5b3360009081526001602052604080822083905581546001600160a01b03168252902054610700908290610e31565b600080546001600160a01b03908116825260016020908152604080842094909455915492518481523393909116917fddf252ad1be2c89b69c2b068fc378daa952ba7f163c4a11628f55a4df523b3ef910160405180910390a350565b336000908152600660205260409020600201546001146107be5760405162461bcd60e51b815260206004820152601d60248201527f42696464657220646f65736e2774206861766520616e206f6c64426964000000604482015260640161042b565b6009546001600160a01b031633036107d557600080fd5b3360009081526006602052604080822060018101549054915190926001600160a01b03909216916108fc841502918491818181858888f19350505050158015610822573d6000803e3d6000fd5b50503360009081526006602052604081206002810182905560010155565b336000908152600660205260408120600201548190156108a25760405162461bcd60e51b815260206004820152601f60248201527f426964646572206e6565647320746f207769746864726177206f6c6442696400604482015260640161042b565b600160075460ff1660028111156108bb576108bb610daa565b146108fd5760405162461bcd60e51b81526020600482015260126024820152714e6f7420696e2076616c696420737461746560701b604482015260640161042b565b333134111561091e5760405162461bcd60e51b815260040161042b90610e60565b505033600081815260066020526040902080546001600160a01b031990811683178255346001808401829055600290930192909255600882905560098054821684179055600a80549091166001600160a01b0394909416939093179092559091565b3360009081526001602052604081205482111561099c57600080fd5b336000908152600160205260409020546109b7908390610e31565b33600090815260016020526040808220929092556001600160a01b038516815220546109e4908390610e48565b6001600160a01b0384166000818152600160205260409081902092909255905133907fddf252ad1be2c89b69c2b068fc378daa952ba7f163c4a11628f55a4df523b3ef906105479086815260200190565b610a3f3382610980565b5050565b6001600160a01b0381166000908152600560205260409020600190810154829160ff909116151514610aaf5760405162461bcd60e51b8152602060048201526015602482015274141b185e595c881b9bdd081c9959da5cdd195c9959605a1b604482015260640161042b565b3331341115610ad05760405162461bcd60e51b815260040161042b90610e60565b6001600160a01b0382166000908152600560205260409020600101548290600160a81b900460ff1615610b415760405162461bcd60e51b8152602060048201526019602482015278141b185e595c88185b1c9958591e481c9959da5cdd195c9959603a1b604482015260640161042b565b6001600160a01b0380841660009081526005602052604080822060010154905134936101009092049091169183156108fc02918491818181858888f19350505050158015610b93573d6000803e3d6000fd5b5050336000908152600560205260409020600101805460ff60a81b1916600160a81b179055505050565b3360009081526005602052604090206001015460ff1615610c1c5760405162461bcd60e51b8152602060048201526019602482015278141b185e595c88185b1c9958591e481c9959da5cdd195c9959603a1b604482015260640161042b565b3331341115610c3d5760405162461bcd60e51b815260040161042b90610e60565b3360008181526005602052604090209182556001918201805460ff60a81b196101009093026001600160a81b031990911617909217169055565b600060208083528351808285015260005b81811015610ca457858101830151858201604001528201610c88565b81811115610cb6576000604083870101525b50601f01601f1916929092016040019392505050565b600060208284031215610cde57600080fd5b813560038110610ced57600080fd5b9392505050565b80356001600160a01b0381168114610d0b57600080fd5b919050565b60008060408385031215610d2357600080fd5b610d2c83610cf4565b946020939093013593505050565b600080600060608486031215610d4f57600080fd5b610d5884610cf4565b9250610d6660208501610cf4565b9150604084013590509250925092565b600060208284031215610d8857600080fd5b5035919050565b600060208284031215610da157600080fd5b610ced82610cf4565b634e487b7160e01b600052602160045260246000fd5b6020810160038310610de257634e487b7160e01b600052602160045260246000fd5b91905290565b60008060408385031215610dfb57600080fd5b610e0483610cf4565b9150610e1260208401610cf4565b90509250929050565b634e487b7160e01b600052601160045260246000fd5b600082821015610e4357610e43610e1b565b500390565b60008219821115610e5b57610e5b610e1b565b500190565b602080825260149082015273496e73756666696369656e742062616c616e636560601b60408201526060019056fea26469706673582212205c3cc24bbc457c5fa9e32eb8c311328e99e01d611bc5d3e2eddc40167adad25564736f6c634300080d0033",
  "immutableReferences": {},
  "source": "// SPDX-License-Identifier: MIT\npragma solidity >=0.4.22 <0.9.0;\nimport \"./ERC20.sol\";\n\ncontract bidwicket is ERC20Basic{\n  address auctioneer;\n  struct playerInfo\n  {\n    uint price;\n    bool registered;\n    address payable addr;\n    bool alreadySold;\n  }\n\n  struct buyerInfo\n  {\n    address payable addr;\n    uint amount;\n    uint status;\n  }\n\n  mapping (address=>playerInfo) playerMembership;\n  mapping (address=>buyerInfo) buyers;\n  enum Phase{init,bid,done}\n  Phase public state = Phase.init;\n  uint currentBidValue = 0;\n  address currentBidderAddress;\n  address currentPlayerInAuction;\n\n\n  modifier onlyRegisteredPlayer(address playerAddr)\n  {\n    require(playerMembership[playerAddr].registered == true,\"Player not registered\");\n    _;\n  }\n\n  modifier buyerBalance()\n  {\n    require(msg.value <= msg.sender.balance, \"Insufficient balance\");\n    _;\n  }\n\n  modifier alreadyRegistered()\n  {\n    require(playerMembership[msg.sender].registered == false,\"Player already registered\");\n    _;\n  }\n\n  modifier alreadySold(address playerAddr)\n  {\n    require(playerMembership[playerAddr].alreadySold == false,\"Player already registered\");\n    _;\n  }\n\n  modifier newBid()\n  {\n    require(buyers[msg.sender].status == 0,\"Bidder needs to withdraw oldBid\");\n    _;\n  }\n\n  modifier alreadyBidded()\n  {\n    require(buyers[msg.sender].status == 1,\"Bidder doesn't have an oldBid\");\n    _;\n  }\n\n  modifier onlyAuctioneer()\n  {\n    require(msg.sender == auctioneer,\"Only auctioneer can change phase\");\n    _;\n  }\n\n  modifier notCurrentHighestBidder()\n  {\n    require(msg.sender != currentBidderAddress);\n    _;\n  }\n\n  modifier checkBidPhase()\n  {\n    require(state == Phase.bid,\"Not in valid state\");\n    _;\n  }\n\n  constructor() {\n    auctioneer = msg.sender;\n  }\n  \n  function register(uint price) public payable alreadyRegistered buyerBalance\n  {\n    playerMembership[msg.sender].price = price;\n    playerMembership[msg.sender].registered = true;\n    playerMembership[msg.sender].addr = payable(msg.sender);\n    playerMembership[msg.sender].alreadySold = false;\n  }\n\n  function buy(address playerAddr) public payable onlyRegisteredPlayer(playerAddr) buyerBalance alreadySold(playerAddr)\n  { \n    uint amount = msg.value;\n    playerMembership[playerAddr].addr.transfer(amount);\n    playerMembership[msg.sender].alreadySold = true;\n  }\n\n  function changePhase(Phase newPhase) public onlyAuctioneer\n  { \n    if(state == Phase.done){\n      address payable transferAcc = payable(currentPlayerInAuction);\n      transferAcc.transfer(currentBidValue);\n      currentBidValue = 0;\n      buyers[currentPlayerInAuction].status = 0;\n      buyers[currentPlayerInAuction].amount = 0;\n    }\n    state = newPhase;\n  }\n\n\n  function bid(address playerAddr) public payable newBid checkBidPhase buyerBalance returns (uint bidValue,address bidderAddress)\n  {\n    buyers[msg.sender].addr = payable(msg.sender);\n    buyers[msg.sender].amount = msg.value;\n    buyers[msg.sender].status = 1;\n    currentBidValue = msg.value;\n    currentBidderAddress = msg.sender;\n    bidValue = currentBidValue;\n    bidderAddress = currentBidderAddress;\n    currentPlayerInAuction = playerAddr;\n  }\n\n  function withdraw() public payable alreadyBidded notCurrentHighestBidder\n  { \n    uint amount = buyers[msg.sender].amount;\n    buyers[msg.sender].addr.transfer(amount);\n    buyers[msg.sender].status = 0;\n    buyers[msg.sender].amount = 0;\n  }\n\n  function getCurrentBidInfo() public view returns (uint bidValue,address bidAddress)\n  {\n    bidValue = currentBidValue;\n    bidAddress = currentBidderAddress;\n  }\n\n  function getCurrentPhase() public view returns (Phase currentPhase)\n  {\n    currentPhase = state;\n  }\n\n  function getHth(uint256 tok) public payable{\n    // ERC20 c = ERC20(auctioneer);\n    transfer(msg.sender, tok);\n  }\n\n}\n",
  "sourcePath": "/Users/ankitshetty/Code/course-work/sem-2/cse526-blockchain/bid-wicket/bidwicket-contract/contracts/bidwicket.sol",
  "compiler": {
    "name": "solc",
    "version": "0.8.13+commit.abaa5c0e.Emscripten.clang"
  },
  "schemaVersion": "3.4.6",
  "updatedAt": "2022-05-08T00:03:50.909Z",
  "networkType": "ethereum",
  "devdoc": {
    "kind": "dev",
    "methods": {},
    "version": 1
  },
  "userdoc": {
    "kind": "user",
    "methods": {},
    "version": 1
  }
}