{
  "contractName": "bidwicket",
  "abi": [
    {
      "inputs": [],
      "stateMutability": "nonpayable",
      "type": "constructor"
    },
    {
      "inputs": [],
      "name": "state",
      "outputs": [
        {
          "internalType": "enum bidwicket.Phase",
          "name": "",
          "type": "uint8"
        }
      ],
      "stateMutability": "view",
      "type": "function",
      "constant": true
    },
    {
      "inputs": [
        {
          "internalType": "uint256",
          "name": "price",
          "type": "uint256"
        }
      ],
      "name": "register",
      "outputs": [],
      "stateMutability": "payable",
      "type": "function",
      "payable": true
    },
    {
      "inputs": [
        {
          "internalType": "address",
          "name": "playerAddr",
          "type": "address"
        }
      ],
      "name": "buy",
      "outputs": [],
      "stateMutability": "payable",
      "type": "function",
      "payable": true
    },
    {
      "inputs": [
        {
          "internalType": "enum bidwicket.Phase",
          "name": "newPhase",
          "type": "uint8"
        }
      ],
      "name": "changePhase",
      "outputs": [],
      "stateMutability": "nonpayable",
      "type": "function"
    },
    {
      "inputs": [
        {
          "internalType": "address",
          "name": "playerAddr",
          "type": "address"
        }
      ],
      "name": "bid",
      "outputs": [
        {
          "internalType": "uint256",
          "name": "bidValue",
          "type": "uint256"
        },
        {
          "internalType": "address",
          "name": "bidderAddress",
          "type": "address"
        }
      ],
      "stateMutability": "payable",
      "type": "function",
      "payable": true
    },
    {
      "inputs": [],
      "name": "withdraw",
      "outputs": [],
      "stateMutability": "payable",
      "type": "function",
      "payable": true
    },
    {
      "inputs": [],
      "name": "getCurrentBidInfo",
      "outputs": [
        {
          "internalType": "uint256",
          "name": "bidValue",
          "type": "uint256"
        },
        {
          "internalType": "address",
          "name": "bidAddress",
          "type": "address"
        }
      ],
      "stateMutability": "view",
      "type": "function",
      "constant": true
    },
    {
      "inputs": [],
      "name": "getCurrentPhase",
      "outputs": [
        {
          "internalType": "enum bidwicket.Phase",
          "name": "currentPhase",
          "type": "uint8"
        }
      ],
      "stateMutability": "view",
      "type": "function",
      "constant": true
    }
  ],
  "bytecode": "0x60806040526000600360006101000a81548160ff0219169083600281111561002a57610029610086565b5b0217905550600060045534801561004057600080fd5b50336000806101000a81548173ffffffffffffffffffffffffffffffffffffffff021916908373ffffffffffffffffffffffffffffffffffffffff1602179055506100b5565b7f4e487b7100000000000000000000000000000000000000000000000000000000600052602160045260246000fd5b61141d806100c46000396000f3fe60806040526004361061007b5760003560e01c8063b974b6071161004e578063b974b6071461010f578063c19d93fb1461013b578063f088d54714610166578063f207564e146101825761007b565b80630721c297146100805780633ccfd60b146100a95780639cf5453d146100b3578063a3a40ea5146100e4575b600080fd5b34801561008c57600080fd5b506100a760048036038101906100a29190610eee565b61019e565b005b6100b16103e1565b005b6100cd60048036038101906100c89190610f79565b610643565b6040516100db929190610fce565b60405180910390f35b3480156100f057600080fd5b506100f9610963565b604051610106919061106e565b60405180910390f35b34801561011b57600080fd5b5061012461097a565b604051610132929190610fce565b60405180910390f35b34801561014757600080fd5b506101506109ab565b60405161015d919061106e565b60405180910390f35b610180600480360381019061017b9190610f79565b6109be565b005b61019c600480360381019061019791906110b5565b610c54565b005b60008054906101000a900473ffffffffffffffffffffffffffffffffffffffff1673ffffffffffffffffffffffffffffffffffffffff163373ffffffffffffffffffffffffffffffffffffffff161461022c576040517f08c379a00000000000000000000000000000000000000000000000000000000081526004016102239061113f565b60405180910390fd5b60028081111561023f5761023e610ff7565b5b600360009054906101000a900460ff16600281111561026157610260610ff7565b5b036103b4576000600660009054906101000a900473ffffffffffffffffffffffffffffffffffffffff1690508073ffffffffffffffffffffffffffffffffffffffff166108fc6004549081150290604051600060405180830381858888f193505050501580156102d5573d6000803e3d6000fd5b506000600481905550600060026000600660009054906101000a900473ffffffffffffffffffffffffffffffffffffffff1673ffffffffffffffffffffffffffffffffffffffff1673ffffffffffffffffffffffffffffffffffffffff16815260200190815260200160002060020181905550600060026000600660009054906101000a900473ffffffffffffffffffffffffffffffffffffffff1673ffffffffffffffffffffffffffffffffffffffff1673ffffffffffffffffffffffffffffffffffffffff16815260200190815260200160002060010181905550505b80600360006101000a81548160ff021916908360028111156103d9576103d8610ff7565b5b021790555050565b6001600260003373ffffffffffffffffffffffffffffffffffffffff1673ffffffffffffffffffffffffffffffffffffffff1681526020019081526020016000206002015414610466576040517f08c379a000000000000000000000000000000000000000000000000000000000815260040161045d906111ab565b60405180910390fd5b600560009054906101000a900473ffffffffffffffffffffffffffffffffffffffff1673ffffffffffffffffffffffffffffffffffffffff163373ffffffffffffffffffffffffffffffffffffffff16036104c057600080fd5b6000600260003373ffffffffffffffffffffffffffffffffffffffff1673ffffffffffffffffffffffffffffffffffffffff168152602001908152602001600020600101549050600260003373ffffffffffffffffffffffffffffffffffffffff1673ffffffffffffffffffffffffffffffffffffffff16815260200190815260200160002060000160009054906101000a900473ffffffffffffffffffffffffffffffffffffffff1673ffffffffffffffffffffffffffffffffffffffff166108fc829081150290604051600060405180830381858888f193505050501580156105af573d6000803e3d6000fd5b506000600260003373ffffffffffffffffffffffffffffffffffffffff1673ffffffffffffffffffffffffffffffffffffffff168152602001908152602001600020600201819055506000600260003373ffffffffffffffffffffffffffffffffffffffff1673ffffffffffffffffffffffffffffffffffffffff1681526020019081526020016000206001018190555050565b6000806000600260003373ffffffffffffffffffffffffffffffffffffffff1673ffffffffffffffffffffffffffffffffffffffff16815260200190815260200160002060020154146106cb576040517f08c379a00000000000000000000000000000000000000000000000000000000081526004016106c290611217565b60405180910390fd5b600160028111156106df576106de610ff7565b5b600360009054906101000a900460ff16600281111561070157610700610ff7565b5b14610741576040517f08c379a000000000000000000000000000000000000000000000000000000000815260040161073890611283565b60405180910390fd5b3373ffffffffffffffffffffffffffffffffffffffff163134111561079b576040517f08c379a0000000000000000000000000000000000000000000000000000000008152600401610792906112ef565b60405180910390fd5b33600260003373ffffffffffffffffffffffffffffffffffffffff1673ffffffffffffffffffffffffffffffffffffffff16815260200190815260200160002060000160006101000a81548173ffffffffffffffffffffffffffffffffffffffff021916908373ffffffffffffffffffffffffffffffffffffffff16021790555034600260003373ffffffffffffffffffffffffffffffffffffffff1673ffffffffffffffffffffffffffffffffffffffff168152602001908152602001600020600101819055506001600260003373ffffffffffffffffffffffffffffffffffffffff1673ffffffffffffffffffffffffffffffffffffffff168152602001908152602001600020600201819055503460048190555033600560006101000a81548173ffffffffffffffffffffffffffffffffffffffff021916908373ffffffffffffffffffffffffffffffffffffffff1602179055506004549150600560009054906101000a900473ffffffffffffffffffffffffffffffffffffffff16905082600660006101000a81548173ffffffffffffffffffffffffffffffffffffffff021916908373ffffffffffffffffffffffffffffffffffffffff160217905550915091565b6000600360009054906101000a900460ff16905090565b6000806004549150600560009054906101000a900473ffffffffffffffffffffffffffffffffffffffff1690509091565b600360009054906101000a900460ff1681565b8060011515600160008373ffffffffffffffffffffffffffffffffffffffff1673ffffffffffffffffffffffffffffffffffffffff16815260200190815260200160002060010160009054906101000a900460ff16151514610a55576040517f08c379a0000000000000000000000000000000000000000000000000000000008152600401610a4c9061135b565b60405180910390fd5b3373ffffffffffffffffffffffffffffffffffffffff1631341115610aaf576040517f08c379a0000000000000000000000000000000000000000000000000000000008152600401610aa6906112ef565b60405180910390fd5b8160001515600160008373ffffffffffffffffffffffffffffffffffffffff1673ffffffffffffffffffffffffffffffffffffffff16815260200190815260200160002060010160159054906101000a900460ff16151514610b46576040517f08c379a0000000000000000000000000000000000000000000000000000000008152600401610b3d906113c7565b60405180910390fd5b6000349050600160008573ffffffffffffffffffffffffffffffffffffffff1673ffffffffffffffffffffffffffffffffffffffff16815260200190815260200160002060010160019054906101000a900473ffffffffffffffffffffffffffffffffffffffff1673ffffffffffffffffffffffffffffffffffffffff166108fc829081150290604051600060405180830381858888f19350505050158015610bf3573d6000803e3d6000fd5b5060018060003373ffffffffffffffffffffffffffffffffffffffff1673ffffffffffffffffffffffffffffffffffffffff16815260200190815260200160002060010160156101000a81548160ff02191690831515021790555050505050565b60001515600160003373ffffffffffffffffffffffffffffffffffffffff1673ffffffffffffffffffffffffffffffffffffffff16815260200190815260200160002060010160009054906101000a900460ff16151514610cea576040517f08c379a0000000000000000000000000000000000000000000000000000000008152600401610ce1906113c7565b60405180910390fd5b3373ffffffffffffffffffffffffffffffffffffffff1631341115610d44576040517f08c379a0000000000000000000000000000000000000000000000000000000008152600401610d3b906112ef565b60405180910390fd5b80600160003373ffffffffffffffffffffffffffffffffffffffff1673ffffffffffffffffffffffffffffffffffffffff1681526020019081526020016000206000018190555060018060003373ffffffffffffffffffffffffffffffffffffffff1673ffffffffffffffffffffffffffffffffffffffff16815260200190815260200160002060010160006101000a81548160ff02191690831515021790555033600160003373ffffffffffffffffffffffffffffffffffffffff1673ffffffffffffffffffffffffffffffffffffffff16815260200190815260200160002060010160016101000a81548173ffffffffffffffffffffffffffffffffffffffff021916908373ffffffffffffffffffffffffffffffffffffffff1602179055506000600160003373ffffffffffffffffffffffffffffffffffffffff1673ffffffffffffffffffffffffffffffffffffffff16815260200190815260200160002060010160156101000a81548160ff02191690831515021790555050565b600080fd5b60038110610ed657600080fd5b50565b600081359050610ee881610ec9565b92915050565b600060208284031215610f0457610f03610ec4565b5b6000610f1284828501610ed9565b91505092915050565b600073ffffffffffffffffffffffffffffffffffffffff82169050919050565b6000610f4682610f1b565b9050919050565b610f5681610f3b565b8114610f6157600080fd5b50565b600081359050610f7381610f4d565b92915050565b600060208284031215610f8f57610f8e610ec4565b5b6000610f9d84828501610f64565b91505092915050565b6000819050919050565b610fb981610fa6565b82525050565b610fc881610f3b565b82525050565b6000604082019050610fe36000830185610fb0565b610ff06020830184610fbf565b9392505050565b7f4e487b7100000000000000000000000000000000000000000000000000000000600052602160045260246000fd5b6003811061103757611036610ff7565b5b50565b600081905061104882611026565b919050565b60006110588261103a565b9050919050565b6110688161104d565b82525050565b6000602082019050611083600083018461105f565b92915050565b61109281610fa6565b811461109d57600080fd5b50565b6000813590506110af81611089565b92915050565b6000602082840312156110cb576110ca610ec4565b5b60006110d9848285016110a0565b91505092915050565b600082825260208201905092915050565b7f4f6e6c792061756374696f6e6565722063616e206368616e6765207068617365600082015250565b60006111296020836110e2565b9150611134826110f3565b602082019050919050565b600060208201905081810360008301526111588161111c565b9050919050565b7f42696464657220646f65736e2774206861766520616e206f6c64426964000000600082015250565b6000611195601d836110e2565b91506111a08261115f565b602082019050919050565b600060208201905081810360008301526111c481611188565b9050919050565b7f426964646572206e6565647320746f207769746864726177206f6c6442696400600082015250565b6000611201601f836110e2565b915061120c826111cb565b602082019050919050565b60006020820190508181036000830152611230816111f4565b9050919050565b7f4e6f7420696e2076616c69642073746174650000000000000000000000000000600082015250565b600061126d6012836110e2565b915061127882611237565b602082019050919050565b6000602082019050818103600083015261129c81611260565b9050919050565b7f496e73756666696369656e742062616c616e6365000000000000000000000000600082015250565b60006112d96014836110e2565b91506112e4826112a3565b602082019050919050565b60006020820190508181036000830152611308816112cc565b9050919050565b7f506c61796572206e6f7420726567697374657265640000000000000000000000600082015250565b60006113456015836110e2565b91506113508261130f565b602082019050919050565b6000602082019050818103600083015261137481611338565b9050919050565b7f506c6179657220616c7265616479207265676973746572656400000000000000600082015250565b60006113b16019836110e2565b91506113bc8261137b565b602082019050919050565b600060208201905081810360008301526113e0816113a4565b905091905056fea2646970667358221220c7a5a4050e46aab56c3fa73979b0b1243046d4677365943e111164f0bd7066b064736f6c634300080d0033",
  "immutableReferences": {},
  "source": "// SPDX-License-Identifier: MIT\npragma solidity >=0.4.22 <0.9.0;\n\ncontract bidwicket {\n  address auctioneer;\n  struct playerInfo\n  {\n    uint price;\n    bool registered;\n    address payable addr;\n    bool alreadySold;\n  }\n\n  struct buyerInfo\n  {\n    address payable addr;\n    uint amount;\n    uint status;\n  }\n\n  mapping (address=>playerInfo) playerMembership;\n  mapping (address=>buyerInfo) buyers;\n  enum Phase{init,bid,done}\n  Phase public state = Phase.init;\n  uint currentBidValue = 0;\n  address currentBidderAddress;\n  address currentPlayerInAuction;\n\n\n  modifier onlyRegisteredPlayer(address playerAddr)\n  {\n    require(playerMembership[playerAddr].registered == true,\"Player not registered\");\n    _;\n  }\n\n  modifier buyerBalance()\n  {\n    require(msg.value <= msg.sender.balance, \"Insufficient balance\");\n    _;\n  }\n\n  modifier alreadyRegistered()\n  {\n    require(playerMembership[msg.sender].registered == false,\"Player already registered\");\n    _;\n  }\n\n  modifier alreadySold(address playerAddr)\n  {\n    require(playerMembership[playerAddr].alreadySold == false,\"Player already registered\");\n    _;\n  }\n\n  modifier newBid()\n  {\n    require(buyers[msg.sender].status == 0,\"Bidder needs to withdraw oldBid\");\n    _;\n  }\n\n  modifier alreadyBidded()\n  {\n    require(buyers[msg.sender].status == 1,\"Bidder doesn't have an oldBid\");\n    _;\n  }\n\n  modifier onlyAuctioneer()\n  {\n    require(msg.sender == auctioneer,\"Only auctioneer can change phase\");\n    _;\n  }\n\n  modifier notCurrentHighestBidder()\n  {\n    require(msg.sender != currentBidderAddress);\n    _;\n  }\n\n  modifier checkBidPhase()\n  {\n    require(state == Phase.bid,\"Not in valid state\");\n    _;\n  }\n\n  constructor() {\n    auctioneer = msg.sender;\n  }\n  \n  function register(uint price) public payable alreadyRegistered buyerBalance\n  {\n    playerMembership[msg.sender].price = price;\n    playerMembership[msg.sender].registered = true;\n    playerMembership[msg.sender].addr = payable(msg.sender);\n    playerMembership[msg.sender].alreadySold = false;\n  }\n\n  function buy(address playerAddr) public payable onlyRegisteredPlayer(playerAddr) buyerBalance alreadySold(playerAddr)\n  { \n    uint amount = msg.value;\n    playerMembership[playerAddr].addr.transfer(amount);\n    playerMembership[msg.sender].alreadySold = true;\n  }\n\n  function changePhase(Phase newPhase) public onlyAuctioneer\n  { \n    if(state == Phase.done){\n      address payable transferAcc = payable(currentPlayerInAuction);\n      transferAcc.transfer(currentBidValue);\n      currentBidValue = 0;\n      buyers[currentPlayerInAuction].status = 0;\n      buyers[currentPlayerInAuction].amount = 0;\n    }\n    state = newPhase;\n  }\n\n\n  function bid(address playerAddr) public payable newBid checkBidPhase buyerBalance returns (uint bidValue,address bidderAddress)\n  {\n    buyers[msg.sender].addr = payable(msg.sender);\n    buyers[msg.sender].amount = msg.value;\n    buyers[msg.sender].status = 1;\n    currentBidValue = msg.value;\n    currentBidderAddress = msg.sender;\n    bidValue = currentBidValue;\n    bidderAddress = currentBidderAddress;\n    currentPlayerInAuction = playerAddr;\n  }\n\n  function withdraw() public payable alreadyBidded notCurrentHighestBidder\n  { \n    uint amount = buyers[msg.sender].amount;\n    buyers[msg.sender].addr.transfer(amount);\n    buyers[msg.sender].status = 0;\n    buyers[msg.sender].amount = 0;\n  }\n\n  function getCurrentBidInfo() public view returns (uint bidValue,address bidAddress)\n  {\n    bidValue = currentBidValue;\n    bidAddress = currentBidderAddress;\n  }\n\n  function getCurrentPhase() public view returns (Phase currentPhase)\n  {\n    currentPhase = state;\n  }\n\n}\n",
  "sourcePath": "/Users/ankitshetty/Code/course-work/sem-2/cse526-blockchain/bid-wicket/bidwicket-contract/contracts/bidwicket.sol",
  "compiler": {
    "name": "solc",
    "version": "0.8.13+commit.abaa5c0e.Emscripten.clang"
  },
  "schemaVersion": "3.4.6",
  "updatedAt": "2022-05-07T17:35:23.795Z",
  "networkType": "ethereum",
  "devdoc": {
    "kind": "dev",
    "methods": {},
    "version": 1
  },
  "userdoc": {
    "kind": "user",
    "methods": {},
    "version": 1
  }
}