{
  "contractName": "bidwicket",
  "abi": [
    {
      "inputs": [],
      "stateMutability": "nonpayable",
      "type": "constructor"
    },
    {
      "anonymous": false,
      "inputs": [
        {
          "indexed": true,
          "internalType": "address",
          "name": "owner",
          "type": "address"
        },
        {
          "indexed": true,
          "internalType": "address",
          "name": "spender",
          "type": "address"
        },
        {
          "indexed": false,
          "internalType": "uint256",
          "name": "value",
          "type": "uint256"
        }
      ],
      "name": "Approval",
      "type": "event"
    },
    {
      "anonymous": false,
      "inputs": [
        {
          "indexed": true,
          "internalType": "address",
          "name": "from",
          "type": "address"
        },
        {
          "indexed": true,
          "internalType": "address",
          "name": "to",
          "type": "address"
        },
        {
          "indexed": false,
          "internalType": "uint256",
          "name": "value",
          "type": "uint256"
        }
      ],
      "name": "Transfer",
      "type": "event"
    },
    {
      "inputs": [
        {
          "internalType": "address",
          "name": "receiver",
          "type": "address"
        },
        {
          "internalType": "uint256",
          "name": "numTokens",
          "type": "uint256"
        }
      ],
      "name": "SendHeathereum",
      "outputs": [],
      "stateMutability": "nonpayable",
      "type": "function"
    },
    {
      "inputs": [
        {
          "internalType": "address",
          "name": "owner",
          "type": "address"
        },
        {
          "internalType": "address",
          "name": "delegate",
          "type": "address"
        }
      ],
      "name": "allowance",
      "outputs": [
        {
          "internalType": "uint256",
          "name": "",
          "type": "uint256"
        }
      ],
      "stateMutability": "view",
      "type": "function"
    },
    {
      "inputs": [
        {
          "internalType": "address",
          "name": "delegate",
          "type": "address"
        },
        {
          "internalType": "uint256",
          "name": "numTokens",
          "type": "uint256"
        }
      ],
      "name": "approve",
      "outputs": [
        {
          "internalType": "bool",
          "name": "",
          "type": "bool"
        }
      ],
      "stateMutability": "nonpayable",
      "type": "function"
    },
    {
      "inputs": [
        {
          "internalType": "address",
          "name": "tokenOwner",
          "type": "address"
        }
      ],
      "name": "balanceOf",
      "outputs": [
        {
          "internalType": "uint256",
          "name": "",
          "type": "uint256"
        }
      ],
      "stateMutability": "view",
      "type": "function"
    },
    {
      "inputs": [],
      "name": "decimals",
      "outputs": [
        {
          "internalType": "uint8",
          "name": "",
          "type": "uint8"
        }
      ],
      "stateMutability": "view",
      "type": "function"
    },
    {
      "inputs": [],
      "name": "name",
      "outputs": [
        {
          "internalType": "string",
          "name": "",
          "type": "string"
        }
      ],
      "stateMutability": "view",
      "type": "function"
    },
    {
      "inputs": [],
      "name": "state",
      "outputs": [
        {
          "internalType": "enum bidwicket.Phase",
          "name": "",
          "type": "uint8"
        }
      ],
      "stateMutability": "view",
      "type": "function"
    },
    {
      "inputs": [],
      "name": "symbol",
      "outputs": [
        {
          "internalType": "string",
          "name": "",
          "type": "string"
        }
      ],
      "stateMutability": "view",
      "type": "function"
    },
    {
      "inputs": [],
      "name": "totalSupply",
      "outputs": [
        {
          "internalType": "uint256",
          "name": "",
          "type": "uint256"
        }
      ],
      "stateMutability": "view",
      "type": "function"
    },
    {
      "inputs": [
        {
          "internalType": "address",
          "name": "receiver",
          "type": "address"
        },
        {
          "internalType": "uint256",
          "name": "numTokens",
          "type": "uint256"
        }
      ],
      "name": "transfer",
      "outputs": [
        {
          "internalType": "bool",
          "name": "",
          "type": "bool"
        }
      ],
      "stateMutability": "nonpayable",
      "type": "function"
    },
    {
      "inputs": [
        {
          "internalType": "address",
          "name": "owner",
          "type": "address"
        },
        {
          "internalType": "address",
          "name": "buyer",
          "type": "address"
        },
        {
          "internalType": "uint256",
          "name": "numTokens",
          "type": "uint256"
        }
      ],
      "name": "transferFrom",
      "outputs": [
        {
          "internalType": "bool",
          "name": "",
          "type": "bool"
        }
      ],
      "stateMutability": "nonpayable",
      "type": "function"
    },
    {
      "inputs": [
        {
          "internalType": "address",
          "name": "receiver",
          "type": "address"
        },
        {
          "internalType": "uint256",
          "name": "numTokens",
          "type": "uint256"
        }
      ],
      "name": "transferFromOwner",
      "outputs": [
        {
          "internalType": "bool",
          "name": "",
          "type": "bool"
        }
      ],
      "stateMutability": "nonpayable",
      "type": "function"
    },
    {
      "inputs": [
        {
          "internalType": "uint256",
          "name": "price",
          "type": "uint256"
        }
      ],
      "name": "register",
      "outputs": [],
      "stateMutability": "nonpayable",
      "type": "function"
    },
    {
      "inputs": [
        {
          "internalType": "address",
          "name": "playerAddr",
          "type": "address"
        }
      ],
      "name": "buy",
      "outputs": [],
      "stateMutability": "nonpayable",
      "type": "function"
    },
    {
      "inputs": [
        {
          "internalType": "enum bidwicket.Phase",
          "name": "newPhase",
          "type": "uint8"
        }
      ],
      "name": "changePhase",
      "outputs": [],
      "stateMutability": "nonpayable",
      "type": "function"
    },
    {
      "inputs": [
        {
          "internalType": "address",
          "name": "playerAddr",
          "type": "address"
        },
        {
          "internalType": "uint256",
          "name": "value",
          "type": "uint256"
        }
      ],
      "name": "bid",
      "outputs": [
        {
          "internalType": "uint256",
          "name": "bidValue",
          "type": "uint256"
        },
        {
          "internalType": "address",
          "name": "bidderAddress",
          "type": "address"
        }
      ],
      "stateMutability": "nonpayable",
      "type": "function"
    },
    {
      "inputs": [],
      "name": "withdraw",
      "outputs": [],
      "stateMutability": "payable",
      "type": "function"
    },
    {
      "inputs": [],
      "name": "getCurrentBidInfo",
      "outputs": [
        {
          "internalType": "uint256",
          "name": "bidValue",
          "type": "uint256"
        },
        {
          "internalType": "address",
          "name": "bidAddress",
          "type": "address"
        }
      ],
      "stateMutability": "view",
      "type": "function"
    },
    {
      "inputs": [],
      "name": "getCurrentPhase",
      "outputs": [
        {
          "internalType": "enum bidwicket.Phase",
          "name": "currentPhase",
          "type": "uint8"
        }
      ],
      "stateMutability": "view",
      "type": "function"
    }
  ],
  "bytecode": "0x60806040526007805460ff19169055600060085534801561001f57600080fd5b5060008054336001600160a01b031991821681178355674563918244f4000060038190558184526001602052604084205560048054909216179055610f8c90819061006a90396000f3fe6080604052600436106101145760003560e01c80636c89b1e8116100a0578063b974b60711610064578063b974b60714610348578063c19d93fb14610369578063dd62ed3e14610383578063f088d547146103c9578063f207564e146103e957600080fd5b80636c89b1e81461028257806370a08231146102a257806395d89b41146102d8578063a3a40ea514610307578063a9059cbb1461032857600080fd5b806318160ddd116100e757806318160ddd146101d757806323b872dd146101f6578063313ce567146102165780633ccfd60b1461023d57806359d667a51461024557600080fd5b806306fdde03146101195780630721c29714610165578063095ea7b3146101875780630f18ac07146101b7575b600080fd5b34801561012557600080fd5b5061014f6040518060400160405280600a8152602001694865617468657265756d60b01b81525081565b60405161015c9190610d4d565b60405180910390f35b34801561017157600080fd5b50610185610180366004610da2565b610409565b005b34801561019357600080fd5b506101a76101a2366004610de6565b610500565b604051901515815260200161015c565b3480156101c357600080fd5b506101a76101d2366004610de6565b61056c565b3480156101e357600080fd5b506003545b60405190815260200161015c565b34801561020257600080fd5b506101a7610211366004610e10565b610629565b34801561022257600080fd5b5061022b600081565b60405160ff909116815260200161015c565b61018561076d565b34801561025157600080fd5b50610265610260366004610de6565b61082d565b604080519283526001600160a01b0390911660208301520161015c565b34801561028e57600080fd5b5061018561029d366004610de6565b610972565b3480156102ae57600080fd5b506101e86102bd366004610e4c565b6001600160a01b031660009081526001602052604090205490565b3480156102e457600080fd5b5061014f60405180604001604052806003815260200162090a8960eb1b81525081565b34801561031357600080fd5b5060075460ff165b60405161015c9190610e7d565b34801561033457600080fd5b506101a7610343366004610de6565b610ac4565b34801561035457600080fd5b506008546009546001600160a01b0316610265565b34801561037557600080fd5b5060075461031b9060ff1681565b34801561038f57600080fd5b506101e861039e366004610ea5565b6001600160a01b03918216600090815260026020908152604080832093909416825291909152205490565b3480156103d557600080fd5b506101856103e4366004610e4c565b610b67565b3480156103f557600080fd5b50610185610404366004610ed8565b610c99565b6004546001600160a01b031633146104685760405162461bcd60e51b815260206004820181905260248201527f4f6e6c792061756374696f6e6565722063616e206368616e676520706861736560448201526064015b60405180910390fd5b600260075460ff16600281111561048157610481610e67565b036104d957600a546008546001600160a01b03909116906104a390829061056c565b505060006008819055600a80546001600160a01b0390811683526006602052604080842060020184905591541682528120600101555b6007805482919060ff191660018360028111156104f8576104f8610e67565b021790555050565b3360008181526002602090815260408083206001600160a01b038716808552925280832085905551919290917f8c5be1e5ebec7d5bd14f71427d1e84f3dd0314c0f7b2291e5b200ac8c7c3b9259061055b9086815260200190565b60405180910390a350600192915050565b600080546001600160a01b031681526001602052604081205482111561059157600080fd5b600080546001600160a01b03168152600160205260409020546105b5908390610f07565b600080546001600160a01b03908116825260016020526040808320939093558516815220546105e5908390610f1e565b6001600160a01b0380851660008181526001602052604080822094909455549251909290911690600080516020610f378339815191529061055b9086815260200190565b6001600160a01b03831660009081526001602052604081205482111561064e57600080fd5b6001600160a01b038416600090815260026020908152604080832033845290915290205482111561067e57600080fd5b6001600160a01b0384166000908152600160205260409020546106a2908390610f07565b6001600160a01b03851660009081526001602090815260408083209390935560028152828220338352905220546106da908390610f07565b6001600160a01b038086166000908152600260209081526040808320338452825280832094909455918616815260019091522054610719908390610f1e565b6001600160a01b038085166000818152600160205260409081902093909355915190861690600080516020610f378339815191529061075b9086815260200190565b60405180910390a35060019392505050565b336000908152600660205260409020600201546001146107cf5760405162461bcd60e51b815260206004820152601d60248201527f42696464657220646f65736e2774206861766520616e206f6c64426964000000604482015260640161045f565b6009546001600160a01b031633036107e657600080fd5b3360009081526006602052604090206001810154905461080f906001600160a01b03168261056c565b50503360009081526006602052604081206002810182905560010155565b3360009081526006602052604081206002015481901561088f5760405162461bcd60e51b815260206004820152601f60248201527f426964646572206e6565647320746f207769746864726177206f6c6442696400604482015260640161045f565b600160075460ff1660028111156108a8576108a8610e67565b146108ea5760405162461bcd60e51b81526020600482015260126024820152714e6f7420696e2076616c696420737461746560701b604482015260640161045f565b600454600090610903906001600160a01b031685610ac4565b905080151560010361096a5733600081815260066020526040902080546001600160a01b0319908116831782556001808301889055600290920191909155600886905560098054821683179055600a80549091166001600160a01b03881617905584935091505b509250929050565b6000546001600160a01b031633146109cc5760405162461bcd60e51b815260206004820181905260248201527f4f6e6c79206f776e657220697320616c6c6f77656420746f2061697264726f70604482015260640161045f565b60648111156109da57600080fd5b600080546001600160a01b031681526001602052604090205481106109fe57600080fd5b6001600160a01b038216600090815260016020526040902054610a215780610a45565b6001600160a01b038216600090815260016020526040902054610a45908290610f1e565b6001600160a01b0380841660009081526001602052604080822093909355805490911681522054610a77908290610f07565b600080546001600160a01b03908116825260016020908152604080842094909455915492518481528582169390911691600080516020610f37833981519152910160405180910390a35050565b33600090815260016020526040812054821115610ae057600080fd5b33600090815260016020526040902054610afb908390610f07565b33600090815260016020526040808220929092556001600160a01b03851681522054610b28908390610f1e565b6001600160a01b038416600081815260016020526040908190209290925590513390600080516020610f378339815191529061055b9086815260200190565b6001600160a01b0381166000908152600560205260409020600190810154829160ff909116151514610bd35760405162461bcd60e51b8152602060048201526015602482015274141b185e595c881b9bdd081c9959da5cdd195c9959605a1b604482015260640161045f565b6001600160a01b0382166000908152600560205260409020600101548290600160a81b900460ff1615610c445760405162461bcd60e51b8152602060048201526019602482015278141b185e595c88185b1c9958591e481c9959da5cdd195c9959603a1b604482015260640161045f565b336000908152600560205260408082206001908101805460ff60a81b1916600160a81b1790556001600160a01b03868116845291909220918201549154610c9392610100900490911690610ac4565b50505050565b3360009081526005602052604090206001015460ff1615610cf85760405162461bcd60e51b8152602060048201526019602482015278141b185e595c88185b1c9958591e481c9959da5cdd195c9959603a1b604482015260640161045f565b336000818152600560205260409020828155600190810180546001600160a81b03191661010090930292909217811760ff60a81b1916909155600454610d49916001600160a01b0390911690610ac4565b5050565b600060208083528351808285015260005b81811015610d7a57858101830151858201604001528201610d5e565b81811115610d8c576000604083870101525b50601f01601f1916929092016040019392505050565b600060208284031215610db457600080fd5b813560038110610dc357600080fd5b9392505050565b80356001600160a01b0381168114610de157600080fd5b919050565b60008060408385031215610df957600080fd5b610e0283610dca565b946020939093013593505050565b600080600060608486031215610e2557600080fd5b610e2e84610dca565b9250610e3c60208501610dca565b9150604084013590509250925092565b600060208284031215610e5e57600080fd5b610dc382610dca565b634e487b7160e01b600052602160045260246000fd5b6020810160038310610e9f57634e487b7160e01b600052602160045260246000fd5b91905290565b60008060408385031215610eb857600080fd5b610ec183610dca565b9150610ecf60208401610dca565b90509250929050565b600060208284031215610eea57600080fd5b5035919050565b634e487b7160e01b600052601160045260246000fd5b600082821015610f1957610f19610ef1565b500390565b60008219821115610f3157610f31610ef1565b50019056feddf252ad1be2c89b69c2b068fc378daa952ba7f163c4a11628f55a4df523b3efa2646970667358221220ca4d91d08d092ab01cbf126faeae54c7392d897ce7b93504e77bd5f1ff9c344964736f6c634300080d0033",
  "immutableReferences": {},
  "source": "// SPDX-License-Identifier: MIT\npragma solidity >=0.4.22 <0.9.0;\nimport \"./ERC20.sol\";\n\ncontract bidwicket is ERC20Basic{\n  address auctioneer;\n  struct playerInfo\n  {\n    uint price;\n    bool registered;\n    address payable addr;\n    bool alreadySold;\n  }\n\n  struct buyerInfo\n  {\n    address payable addr;\n    uint amount;\n    uint status;\n  }\n\n  mapping (address=>playerInfo) playerMembership;\n  mapping (address=>buyerInfo) buyers;\n  enum Phase{init,bid,done}\n  Phase public state = Phase.init;\n  uint currentBidValue = 0;\n  address currentBidderAddress;\n  address currentPlayerInAuction;\n\n\n  modifier onlyRegisteredPlayer(address playerAddr)\n  {\n    require(playerMembership[playerAddr].registered == true,\"Player not registered\");\n    _;\n  }\n\n  modifier buyerBalance()\n  {\n    require(msg.value <= msg.sender.balance, \"Insufficient balance\");\n    _;\n  }\n\n  modifier alreadyRegistered()\n  {\n    require(playerMembership[msg.sender].registered == false,\"Player already registered\");\n    _;\n  }\n\n  modifier alreadySold(address playerAddr)\n  {\n    require(playerMembership[playerAddr].alreadySold == false,\"Player already registered\");\n    _;\n  }\n\n  modifier newBid()\n  {\n    require(buyers[msg.sender].status == 0,\"Bidder needs to withdraw oldBid\");\n    _;\n  }\n\n  modifier alreadyBidded()\n  {\n    require(buyers[msg.sender].status == 1,\"Bidder doesn't have an oldBid\");\n    _;\n  }\n\n  modifier onlyAuctioneer()\n  {\n    require(msg.sender == auctioneer,\"Only auctioneer can change phase\");\n    _;\n  }\n\n  modifier notCurrentHighestBidder()\n  {\n    require(msg.sender != currentBidderAddress);\n    _;\n  }\n\n  modifier checkBidPhase()\n  {\n    require(state == Phase.bid,\"Not in valid state\");\n    _;\n  }\n\n  constructor() {\n    auctioneer = msg.sender;\n  }\n  \n  function register(uint price) public alreadyRegistered\n  {\n    playerMembership[msg.sender].price = price;\n    playerMembership[msg.sender].registered = true;\n    playerMembership[msg.sender].addr = payable(msg.sender);\n    playerMembership[msg.sender].alreadySold = false;\n    transfer(auctioneer,1);\n  }\n\n  function buy(address playerAddr) public onlyRegisteredPlayer(playerAddr) alreadySold(playerAddr)\n  { \n    playerMembership[msg.sender].alreadySold = true;\n    transfer(playerMembership[playerAddr].addr,playerMembership[playerAddr].price);\n\n  }\n\n  function changePhase(Phase newPhase) public onlyAuctioneer\n  { \n    if(state == Phase.done){\n      address payable transferAcc = payable(currentPlayerInAuction);\n      //transferAcc.transfer(currentBidValue);\n      transferFromOwner(transferAcc,currentBidValue);\n      currentBidValue = 0;\n      buyers[currentPlayerInAuction].status = 0;\n      buyers[currentPlayerInAuction].amount = 0;\n    }\n    state = newPhase;\n  }\n\n\n  function bid(address playerAddr, uint256 value) public newBid checkBidPhase returns (uint bidValue,address bidderAddress)\n  { \n    bool res = transfer(auctioneer,value);\n    if(res == true)\n    {\n      buyers[msg.sender].addr = payable(msg.sender);\n      buyers[msg.sender].amount = value;\n      buyers[msg.sender].status = 1;\n      currentBidValue = value;\n      currentBidderAddress = msg.sender;\n      bidValue = currentBidValue;\n      bidderAddress = currentBidderAddress;\n      currentPlayerInAuction = playerAddr;\n    }\n  }\n\n  function withdraw() public payable alreadyBidded notCurrentHighestBidder\n  { \n    uint amount = buyers[msg.sender].amount;\n    //buyers[msg.sender].addr.transfer(amount);\n    transferFromOwner(buyers[msg.sender].addr,amount);\n    buyers[msg.sender].status = 0;\n    buyers[msg.sender].amount = 0;\n  }\n\n  function getCurrentBidInfo() public view returns (uint bidValue,address bidAddress)\n  {\n    bidValue = currentBidValue;\n    bidAddress = currentBidderAddress;\n  }\n\n  function getCurrentPhase() public view returns (Phase currentPhase)\n  {\n    currentPhase = state;\n  }\n\n}\n",
  "sourcePath": "/Users/ankitshetty/Code/course-work/sem-2/cse526-blockchain/bid-wicket/bidwicket-contract/contracts/bidwicket.sol",
  "compiler": {
    "name": "solc",
    "version": "0.8.13+commit.abaa5c0e.Emscripten.clang"
  },
  "schemaVersion": "3.4.6",
  "updatedAt": "2022-05-08T20:53:41.289Z",
  "devdoc": {
    "kind": "dev",
    "methods": {},
    "version": 1
  },
  "userdoc": {
    "kind": "user",
    "methods": {},
    "version": 1
  }
}