{
  "contractName": "bidwicket",
  "abi": [
    {
      "inputs": [],
      "stateMutability": "nonpayable",
      "type": "constructor"
    },
    {
      "anonymous": false,
      "inputs": [
        {
          "indexed": true,
          "internalType": "address",
          "name": "owner",
          "type": "address"
        },
        {
          "indexed": true,
          "internalType": "address",
          "name": "spender",
          "type": "address"
        },
        {
          "indexed": false,
          "internalType": "uint256",
          "name": "value",
          "type": "uint256"
        }
      ],
      "name": "Approval",
      "type": "event"
    },
    {
      "anonymous": false,
      "inputs": [
        {
          "indexed": true,
          "internalType": "address",
          "name": "from",
          "type": "address"
        },
        {
          "indexed": true,
          "internalType": "address",
          "name": "to",
          "type": "address"
        },
        {
          "indexed": false,
          "internalType": "uint256",
          "name": "value",
          "type": "uint256"
        }
      ],
      "name": "Transfer",
      "type": "event"
    },
    {
      "inputs": [
        {
          "internalType": "address",
          "name": "delegate",
          "type": "address"
        },
        {
          "internalType": "uint256",
          "name": "numTokens",
          "type": "uint256"
        }
      ],
      "name": "approve",
      "outputs": [
        {
          "internalType": "bool",
          "name": "",
          "type": "bool"
        }
      ],
      "stateMutability": "nonpayable",
      "type": "function"
    },
    {
      "inputs": [
        {
          "internalType": "address",
          "name": "tokenOwner",
          "type": "address"
        }
      ],
      "name": "balanceOf",
      "outputs": [
        {
          "internalType": "uint256",
          "name": "",
          "type": "uint256"
        }
      ],
      "stateMutability": "view",
      "type": "function",
      "constant": true
    },
    {
      "inputs": [],
      "name": "decimals",
      "outputs": [
        {
          "internalType": "uint8",
          "name": "",
          "type": "uint8"
        }
      ],
      "stateMutability": "view",
      "type": "function",
      "constant": true
    },
    {
      "inputs": [],
      "name": "name",
      "outputs": [
        {
          "internalType": "string",
          "name": "",
          "type": "string"
        }
      ],
      "stateMutability": "view",
      "type": "function",
      "constant": true
    },
    {
      "inputs": [
        {
          "internalType": "address",
          "name": "receiver",
          "type": "address"
        },
        {
          "internalType": "uint256",
          "name": "numTokens",
          "type": "uint256"
        }
      ],
      "name": "sendHeathereum",
      "outputs": [],
      "stateMutability": "nonpayable",
      "type": "function"
    },
    {
      "inputs": [],
      "name": "state",
      "outputs": [
        {
          "internalType": "enum bidwicket.Phase",
          "name": "",
          "type": "uint8"
        }
      ],
      "stateMutability": "view",
      "type": "function",
      "constant": true
    },
    {
      "inputs": [],
      "name": "symbol",
      "outputs": [
        {
          "internalType": "string",
          "name": "",
          "type": "string"
        }
      ],
      "stateMutability": "view",
      "type": "function",
      "constant": true
    },
    {
      "inputs": [],
      "name": "totalSupply",
      "outputs": [
        {
          "internalType": "uint256",
          "name": "",
          "type": "uint256"
        }
      ],
      "stateMutability": "view",
      "type": "function",
      "constant": true
    },
    {
      "inputs": [
        {
          "internalType": "address",
          "name": "receiver",
          "type": "address"
        },
        {
          "internalType": "uint256",
          "name": "numTokens",
          "type": "uint256"
        }
      ],
      "name": "transfer",
      "outputs": [
        {
          "internalType": "bool",
          "name": "",
          "type": "bool"
        }
      ],
      "stateMutability": "nonpayable",
      "type": "function"
    },
    {
      "inputs": [
        {
          "internalType": "address",
          "name": "receiver",
          "type": "address"
        },
        {
          "internalType": "uint256",
          "name": "numTokens",
          "type": "uint256"
        }
      ],
      "name": "transferFromOwner",
      "outputs": [
        {
          "internalType": "bool",
          "name": "",
          "type": "bool"
        }
      ],
      "stateMutability": "nonpayable",
      "type": "function"
    },
    {
      "inputs": [
        {
          "internalType": "uint256",
          "name": "price",
          "type": "uint256"
        }
      ],
      "name": "register",
      "outputs": [],
      "stateMutability": "nonpayable",
      "type": "function"
    },
    {
      "inputs": [
        {
          "internalType": "address",
          "name": "playerAddr",
          "type": "address"
        }
      ],
      "name": "buy",
      "outputs": [],
      "stateMutability": "nonpayable",
      "type": "function"
    },
    {
      "inputs": [
        {
          "internalType": "enum bidwicket.Phase",
          "name": "newPhase",
          "type": "uint8"
        }
      ],
      "name": "changePhase",
      "outputs": [],
      "stateMutability": "nonpayable",
      "type": "function"
    },
    {
      "inputs": [
        {
          "internalType": "address",
          "name": "playerAddr",
          "type": "address"
        },
        {
          "internalType": "uint256",
          "name": "value",
          "type": "uint256"
        }
      ],
      "name": "bid",
      "outputs": [
        {
          "internalType": "uint256",
          "name": "bidValue",
          "type": "uint256"
        },
        {
          "internalType": "address",
          "name": "bidderAddress",
          "type": "address"
        }
      ],
      "stateMutability": "nonpayable",
      "type": "function"
    },
    {
      "inputs": [],
      "name": "withdraw",
      "outputs": [],
      "stateMutability": "payable",
      "type": "function",
      "payable": true
    },
    {
      "inputs": [],
      "name": "getCurrentBidInfo",
      "outputs": [
        {
          "internalType": "uint256",
          "name": "bidValue",
          "type": "uint256"
        },
        {
          "internalType": "address",
          "name": "bidAddress",
          "type": "address"
        }
      ],
      "stateMutability": "view",
      "type": "function",
      "constant": true
    },
    {
      "inputs": [],
      "name": "getCurrentPhase",
      "outputs": [
        {
          "internalType": "enum bidwicket.Phase",
          "name": "currentPhase",
          "type": "uint8"
        }
      ],
      "stateMutability": "view",
      "type": "function",
      "constant": true
    }
  ],
  "bytecode": "0x60806040526007805460ff19169055600060085534801561001f57600080fd5b5060008054336001600160a01b031991821681178355674563918244f4000060038190558184526001602052604084205560048054909216179055610d7390819061006a90396000f3fe6080604052600436106100fe5760003560e01c806359d667a511610095578063a9059cbb11610064578063a9059cbb146102f2578063b974b60714610312578063c19d93fb14610333578063f088d5471461034d578063f207564e1461036d57600080fd5b806359d667a51461022f57806370a082311461026c57806395d89b41146102a2578063a3a40ea5146102d157600080fd5b806318160ddd116100d157806318160ddd146101c15780632876852d146101e0578063313ce567146102005780633ccfd60b1461022757600080fd5b806306fdde03146101035780630721c2971461014f578063095ea7b3146101715780630f18ac07146101a1575b600080fd5b34801561010f57600080fd5b506101396040518060400160405280600a8152602001694865617468657265756d60b01b81525081565b6040516101469190610bc3565b60405180910390f35b34801561015b57600080fd5b5061016f61016a366004610c18565b61038d565b005b34801561017d57600080fd5b5061019161018c366004610c5c565b610484565b6040519015158152602001610146565b3480156101ad57600080fd5b506101916101bc366004610c5c565b6104f0565b3480156101cd57600080fd5b506003545b604051908152602001610146565b3480156101ec57600080fd5b5061016f6101fb366004610c5c565b6105bf565b34801561020c57600080fd5b50610215600081565b60405160ff9091168152602001610146565b61016f610723565b34801561023b57600080fd5b5061024f61024a366004610c5c565b6107e3565b604080519283526001600160a01b03909116602083015201610146565b34801561027857600080fd5b506101d2610287366004610c86565b6001600160a01b031660009081526001602052604090205490565b3480156102ae57600080fd5b5061013960405180604001604052806003815260200162090a8960eb1b81525081565b3480156102dd57600080fd5b5060075460ff165b6040516101469190610cb7565b3480156102fe57600080fd5b5061019161030d366004610c5c565b610928565b34801561031e57600080fd5b506008546009546001600160a01b031661024f565b34801561033f57600080fd5b506007546102e59060ff1681565b34801561035957600080fd5b5061016f610368366004610c86565b6109dd565b34801561037957600080fd5b5061016f610388366004610cdf565b610b0f565b6004546001600160a01b031633146103ec5760405162461bcd60e51b815260206004820181905260248201527f4f6e6c792061756374696f6e6565722063616e206368616e676520706861736560448201526064015b60405180910390fd5b600260075460ff16600281111561040557610405610ca1565b0361045d57600a546008546001600160a01b03909116906104279082906104f0565b505060006008819055600a80546001600160a01b0390811683526006602052604080842060020184905591541682528120600101555b6007805482919060ff1916600183600281111561047c5761047c610ca1565b021790555050565b3360008181526002602090815260408083206001600160a01b038716808552925280832085905551919290917f8c5be1e5ebec7d5bd14f71427d1e84f3dd0314c0f7b2291e5b200ac8c7c3b925906104df9086815260200190565b60405180910390a350600192915050565b600080546001600160a01b031681526001602052604081205482111561051557600080fd5b600080546001600160a01b0316815260016020526040902054610539908390610d0e565b600080546001600160a01b0390811682526001602052604080832093909355851681522054610569908390610d25565b6001600160a01b03808516600081815260016020526040808220949094555492519092909116907fddf252ad1be2c89b69c2b068fc378daa952ba7f163c4a11628f55a4df523b3ef906104df9086815260200190565b6000546001600160a01b031633146106195760405162461bcd60e51b815260206004820181905260248201527f4f6e6c79206f776e657220697320616c6c6f77656420746f2061697264726f7060448201526064016103e3565b606481111561062757600080fd5b600080546001600160a01b0316815260016020526040902054811061064b57600080fd5b6001600160a01b03821660009081526001602052604090205461066e5780610692565b6001600160a01b038216600090815260016020526040902054610692908290610d25565b6001600160a01b03808416600090815260016020526040808220939093558054909116815220546106c4908290610d0e565b600080546001600160a01b039081168252600160209081526040808420949094559154925184815285821693909116917fddf252ad1be2c89b69c2b068fc378daa952ba7f163c4a11628f55a4df523b3ef910160405180910390a35050565b336000908152600660205260409020600201546001146107855760405162461bcd60e51b815260206004820152601d60248201527f42696464657220646f65736e2774206861766520616e206f6c6442696400000060448201526064016103e3565b6009546001600160a01b0316330361079c57600080fd5b336000908152600660205260409020600181015490546107c5906001600160a01b0316826104f0565b50503360009081526006602052604081206002810182905560010155565b336000908152600660205260408120600201548190156108455760405162461bcd60e51b815260206004820152601f60248201527f426964646572206e6565647320746f207769746864726177206f6c644269640060448201526064016103e3565b600160075460ff16600281111561085e5761085e610ca1565b146108a05760405162461bcd60e51b81526020600482015260126024820152714e6f7420696e2076616c696420737461746560701b60448201526064016103e3565b6004546000906108b9906001600160a01b031685610928565b90508015156001036109205733600081815260066020526040902080546001600160a01b0319908116831782556001808301889055600290920191909155600886905560098054821683179055600a80549091166001600160a01b03881617905584935091505b509250929050565b3360009081526001602052604081205482111561094457600080fd5b3360009081526001602052604090205461095f908390610d0e565b33600090815260016020526040808220929092556001600160a01b0385168152205461098c908390610d25565b6001600160a01b0384166000818152600160205260409081902092909255905133907fddf252ad1be2c89b69c2b068fc378daa952ba7f163c4a11628f55a4df523b3ef906104df9086815260200190565b6001600160a01b0381166000908152600560205260409020600190810154829160ff909116151514610a495760405162461bcd60e51b8152602060048201526015602482015274141b185e595c881b9bdd081c9959da5cdd195c9959605a1b60448201526064016103e3565b6001600160a01b0382166000908152600560205260409020600101548290600160a81b900460ff1615610aba5760405162461bcd60e51b8152602060048201526019602482015278141b185e595c88185b1c9958591e481c9959da5cdd195c9959603a1b60448201526064016103e3565b336000908152600560205260408082206001908101805460ff60a81b1916600160a81b1790556001600160a01b03868116845291909220918201549154610b0992610100900490911690610928565b50505050565b3360009081526005602052604090206001015460ff1615610b6e5760405162461bcd60e51b8152602060048201526019602482015278141b185e595c88185b1c9958591e481c9959da5cdd195c9959603a1b60448201526064016103e3565b336000818152600560205260409020828155600190810180546001600160a81b03191661010090930292909217811760ff60a81b1916909155600454610bbf916001600160a01b0390911690610928565b5050565b600060208083528351808285015260005b81811015610bf057858101830151858201604001528201610bd4565b81811115610c02576000604083870101525b50601f01601f1916929092016040019392505050565b600060208284031215610c2a57600080fd5b813560038110610c3957600080fd5b9392505050565b80356001600160a01b0381168114610c5757600080fd5b919050565b60008060408385031215610c6f57600080fd5b610c7883610c40565b946020939093013593505050565b600060208284031215610c9857600080fd5b610c3982610c40565b634e487b7160e01b600052602160045260246000fd5b6020810160038310610cd957634e487b7160e01b600052602160045260246000fd5b91905290565b600060208284031215610cf157600080fd5b5035919050565b634e487b7160e01b600052601160045260246000fd5b600082821015610d2057610d20610cf8565b500390565b60008219821115610d3857610d38610cf8565b50019056fea2646970667358221220f255a8f3a489c84da53d1daedfacf0f1639e85ba8b75d78d179aacb1e5c4aac864736f6c634300080d0033",
  "immutableReferences": {},
  "source": "// SPDX-License-Identifier: MIT\npragma solidity >=0.4.22 <0.9.0;\nimport \"./ERC20.sol\";\n\ncontract bidwicket is ERC20Basic{\n  address auctioneer;\n  struct playerInfo\n  {\n    uint price;\n    bool registered;\n    address payable addr;\n    bool alreadySold;\n  }\n\n  struct buyerInfo\n  {\n    address payable addr;\n    uint amount;\n    uint status;\n  }\n\n  mapping (address=>playerInfo) playerMembership;\n  mapping (address=>buyerInfo) buyers;\n  enum Phase{init,bid,done}\n  Phase public state = Phase.init;\n  uint currentBidValue = 0;\n  address currentBidderAddress;\n  address currentPlayerInAuction;\n\n\n  modifier onlyRegisteredPlayer(address playerAddr)\n  {\n    require(playerMembership[playerAddr].registered == true,\"Player not registered\");\n    _;\n  }\n\n  modifier buyerBalance()\n  {\n    require(msg.value <= msg.sender.balance, \"Insufficient balance\");\n    _;\n  }\n\n  modifier alreadyRegistered()\n  {\n    require(playerMembership[msg.sender].registered == false,\"Player already registered\");\n    _;\n  }\n\n  modifier alreadySold(address playerAddr)\n  {\n    require(playerMembership[playerAddr].alreadySold == false,\"Player already registered\");\n    _;\n  }\n\n  modifier newBid()\n  {\n    require(buyers[msg.sender].status == 0,\"Bidder needs to withdraw oldBid\");\n    _;\n  }\n\n  modifier alreadyBidded()\n  {\n    require(buyers[msg.sender].status == 1,\"Bidder doesn't have an oldBid\");\n    _;\n  }\n\n  modifier onlyAuctioneer()\n  {\n    require(msg.sender == auctioneer,\"Only auctioneer can change phase\");\n    _;\n  }\n\n  modifier notCurrentHighestBidder()\n  {\n    require(msg.sender != currentBidderAddress);\n    _;\n  }\n\n  modifier checkBidPhase()\n  {\n    require(state == Phase.bid,\"Not in valid state\");\n    _;\n  }\n\n  constructor() {\n    auctioneer = msg.sender;\n  }\n  \n  function register(uint price) public alreadyRegistered\n  {\n    playerMembership[msg.sender].price = price;\n    playerMembership[msg.sender].registered = true;\n    playerMembership[msg.sender].addr = payable(msg.sender);\n    playerMembership[msg.sender].alreadySold = false;\n    transfer(auctioneer,1);\n  }\n\n  function buy(address playerAddr) public onlyRegisteredPlayer(playerAddr) alreadySold(playerAddr)\n  { \n    playerMembership[msg.sender].alreadySold = true;\n    transfer(playerMembership[playerAddr].addr,playerMembership[playerAddr].price);\n\n  }\n\n  function changePhase(Phase newPhase) public onlyAuctioneer\n  { \n    if(state == Phase.done){\n      address payable transferAcc = payable(currentPlayerInAuction);\n      //transferAcc.transfer(currentBidValue);\n      transferFromOwner(transferAcc,currentBidValue);\n      currentBidValue = 0;\n      buyers[currentPlayerInAuction].status = 0;\n      buyers[currentPlayerInAuction].amount = 0;\n    }\n    state = newPhase;\n  }\n\n\n  function bid(address playerAddr, uint256 value) public newBid checkBidPhase returns (uint bidValue,address bidderAddress)\n  { \n    bool res = transfer(auctioneer,value);\n    if(res == true)\n    {\n      buyers[msg.sender].addr = payable(msg.sender);\n      buyers[msg.sender].amount = value;\n      buyers[msg.sender].status = 1;\n      currentBidValue = value;\n      currentBidderAddress = msg.sender;\n      bidValue = currentBidValue;\n      bidderAddress = currentBidderAddress;\n      currentPlayerInAuction = playerAddr;\n    }\n  }\n\n  function withdraw() public payable alreadyBidded notCurrentHighestBidder\n  { \n    uint amount = buyers[msg.sender].amount;\n    //buyers[msg.sender].addr.transfer(amount);\n    transferFromOwner(buyers[msg.sender].addr,amount);\n    buyers[msg.sender].status = 0;\n    buyers[msg.sender].amount = 0;\n  }\n\n  function getCurrentBidInfo() public view returns (uint bidValue,address bidAddress)\n  {\n    bidValue = currentBidValue;\n    bidAddress = currentBidderAddress;\n  }\n\n  function getCurrentPhase() public view returns (Phase currentPhase)\n  {\n    currentPhase = state;\n  }\n\n}\n",
  "sourcePath": "/Users/ankitshetty/Code/course-work/sem-2/cse526-blockchain/bid-wicket/bidwicket-contract/contracts/bidwicket.sol",
  "compiler": {
    "name": "solc",
    "version": "0.8.13+commit.abaa5c0e.Emscripten.clang"
  },
  "schemaVersion": "3.4.6",
  "updatedAt": "2022-05-08T21:23:01.102Z",
  "networkType": "ethereum",
  "devdoc": {
    "kind": "dev",
    "methods": {},
    "version": 1
  },
  "userdoc": {
    "kind": "user",
    "methods": {},
    "version": 1
  }
}