{
  "contractName": "bidwicket",
  "abi": [
    {
      "inputs": [],
      "stateMutability": "nonpayable",
      "type": "constructor"
    },
    {
      "inputs": [
        {
          "internalType": "uint256",
          "name": "price",
          "type": "uint256"
        }
      ],
      "name": "register",
      "outputs": [],
      "stateMutability": "payable",
      "type": "function",
      "payable": true
    },
    {
      "inputs": [],
      "name": "buy",
      "outputs": [],
      "stateMutability": "payable",
      "type": "function",
      "payable": true
    }
  ],
  "bytecode": "0x608060405234801561001057600080fd5b50336000806101000a81548173ffffffffffffffffffffffffffffffffffffffff021916908373ffffffffffffffffffffffffffffffffffffffff1602179055506101a5806100606000396000f3fe6080604052600436106100295760003560e01c8063a6f2ae3a1461002e578063f207564e14610038575b600080fd5b610036610054565b005b610052600480360381019061004d9190610142565b610063565b005b6000340361006157600080fd5b565b80600160003373ffffffffffffffffffffffffffffffffffffffff1673ffffffffffffffffffffffffffffffffffffffff1681526020019081526020016000206000018190555060018060003373ffffffffffffffffffffffffffffffffffffffff1673ffffffffffffffffffffffffffffffffffffffff16815260200190815260200160002060010160006101000a81548160ff02191690831515021790555050565b600080fd5b6000819050919050565b61011f8161010c565b811461012a57600080fd5b50565b60008135905061013c81610116565b92915050565b60006020828403121561015857610157610107565b5b60006101668482850161012d565b9150509291505056fea26469706673582212209b8fbc168f2d66c8420d3ba03449ed5e37865f8721e3d3a6ca06e8b04c02c3db64736f6c634300080d0033",
  "immutableReferences": {},
  "source": "// SPDX-License-Identifier: MIT\npragma solidity >=0.4.22 <0.9.0;\n\ncontract bidwicket {\n  address auctioneer;\n  struct playerInfo\n  {\n    uint price;\n    bool registered;\n  }\n  mapping (address=>playerInfo) playerMembership;\n  mapping (address=>uint) buyers;\n\n  constructor() public {\n    auctioneer = msg.sender;\n  }\n\n  function register(uint price) public payable\n  {\n    playerMembership[msg.sender].price = price;\n    playerMembership[msg.sender].registered = true;\n  }\n\n  function buy() public payable\n  {\n    if (msg.value == 0)\n    {\n        revert();\n    }\n  }\n\n}\n",
  "sourcePath": "/Users/ankitshetty/Code/course-work/sem-2/cse526-blockchain/bid-wicket/bidwicket-contract/contracts/bidwicket.sol",
  "compiler": {
    "name": "solc",
    "version": "0.8.13+commit.abaa5c0e.Emscripten.clang"
  },
  "schemaVersion": "3.4.6",
  "updatedAt": "2022-04-14T17:37:14.895Z",
  "networkType": "ethereum",
  "devdoc": {
    "kind": "dev",
    "methods": {},
    "version": 1
  },
  "userdoc": {
    "kind": "user",
    "methods": {},
    "version": 1
  }
}