{
  "contractName": "bidwicket",
  "abi": [
    {
      "inputs": [],
      "stateMutability": "nonpayable",
      "type": "constructor"
    },
    {
      "inputs": [
        {
          "internalType": "uint256",
          "name": "price",
          "type": "uint256"
        }
      ],
      "name": "register",
      "outputs": [],
      "stateMutability": "payable",
      "type": "function",
      "payable": true
    },
    {
      "inputs": [
        {
          "internalType": "uint256",
          "name": "price",
          "type": "uint256"
        }
      ],
      "name": "buy",
      "outputs": [],
      "stateMutability": "payable",
      "type": "function",
      "payable": true
    }
  ],
  "bytecode": "0x608060405234801561001057600080fd5b50336000806101000a81548173ffffffffffffffffffffffffffffffffffffffff021916908373ffffffffffffffffffffffffffffffffffffffff1602179055506101b8806100606000396000f3fe6080604052600436106100295760003560e01c8063d96a094a1461002e578063f207564e1461004a575b600080fd5b61004860048036038101906100439190610155565b610066565b005b610064600480360381019061005f9190610155565b610076565b005b600f811461007357600080fd5b50565b80600160003373ffffffffffffffffffffffffffffffffffffffff1673ffffffffffffffffffffffffffffffffffffffff1681526020019081526020016000206000018190555060018060003373ffffffffffffffffffffffffffffffffffffffff1673ffffffffffffffffffffffffffffffffffffffff16815260200190815260200160002060010160006101000a81548160ff02191690831515021790555050565b600080fd5b6000819050919050565b6101328161011f565b811461013d57600080fd5b50565b60008135905061014f81610129565b92915050565b60006020828403121561016b5761016a61011a565b5b600061017984828501610140565b9150509291505056fea2646970667358221220f4cd86df486ecf7b6b0f16e5368e5bfc830cab1809e017e48f82bf9d27607d4164736f6c634300080d0033",
  "immutableReferences": {},
  "source": "// SPDX-License-Identifier: MIT\npragma solidity >=0.4.22 <0.9.0;\n\ncontract bidwicket {\n  address auctioneer;\n  struct playerInfo\n  {\n    uint price;\n    bool registered;\n  }\n  mapping (address=>playerInfo) playerMembership;\n  mapping (address=>uint) buyers;\n\n  constructor() public {\n    auctioneer = msg.sender;\n  }\n\n  function register(uint price) public payable\n  {\n    playerMembership[msg.sender].price = price;\n    playerMembership[msg.sender].registered = true;\n  }\n\n  function buy(uint price) public payable\n  {\n    if (price != 15)\n    {\n        revert();\n    }\n  }\n\n}\n",
  "sourcePath": "/Users/ankitshetty/Code/course-work/sem-2/cse526-blockchain/bid-wicket/bidwicket-contract/contracts/bidwicket.sol",
  "compiler": {
    "name": "solc",
    "version": "0.8.13+commit.abaa5c0e.Emscripten.clang"
  },
  "schemaVersion": "3.4.6",
  "updatedAt": "2022-04-13T22:18:27.629Z",
  "networkType": "ethereum",
  "devdoc": {
    "kind": "dev",
    "methods": {},
    "version": 1
  },
  "userdoc": {
    "kind": "user",
    "methods": {},
    "version": 1
  }
}