{
  "contractName": "ERC20Basic",
  "abi": [
    {
      "inputs": [],
      "stateMutability": "nonpayable",
      "type": "constructor"
    },
    {
      "anonymous": false,
      "inputs": [
        {
          "indexed": true,
          "internalType": "address",
          "name": "owner",
          "type": "address"
        },
        {
          "indexed": true,
          "internalType": "address",
          "name": "spender",
          "type": "address"
        },
        {
          "indexed": false,
          "internalType": "uint256",
          "name": "value",
          "type": "uint256"
        }
      ],
      "name": "Approval",
      "type": "event"
    },
    {
      "anonymous": false,
      "inputs": [
        {
          "indexed": true,
          "internalType": "address",
          "name": "from",
          "type": "address"
        },
        {
          "indexed": true,
          "internalType": "address",
          "name": "to",
          "type": "address"
        },
        {
          "indexed": false,
          "internalType": "uint256",
          "name": "value",
          "type": "uint256"
        }
      ],
      "name": "Transfer",
      "type": "event"
    },
    {
      "inputs": [],
      "name": "decimals",
      "outputs": [
        {
          "internalType": "uint8",
          "name": "",
          "type": "uint8"
        }
      ],
      "stateMutability": "view",
      "type": "function"
    },
    {
      "inputs": [],
      "name": "name",
      "outputs": [
        {
          "internalType": "string",
          "name": "",
          "type": "string"
        }
      ],
      "stateMutability": "view",
      "type": "function"
    },
    {
      "inputs": [],
      "name": "symbol",
      "outputs": [
        {
          "internalType": "string",
          "name": "",
          "type": "string"
        }
      ],
      "stateMutability": "view",
      "type": "function"
    },
    {
      "inputs": [],
      "name": "totalSupply",
      "outputs": [
        {
          "internalType": "uint256",
          "name": "",
          "type": "uint256"
        }
      ],
      "stateMutability": "view",
      "type": "function"
    },
    {
      "inputs": [
        {
          "internalType": "address",
          "name": "tokenOwner",
          "type": "address"
        }
      ],
      "name": "balanceOf",
      "outputs": [
        {
          "internalType": "uint256",
          "name": "",
          "type": "uint256"
        }
      ],
      "stateMutability": "view",
      "type": "function"
    },
    {
      "inputs": [
        {
          "internalType": "address",
          "name": "receiver",
          "type": "address"
        },
        {
          "internalType": "uint256",
          "name": "numTokens",
          "type": "uint256"
        }
      ],
      "name": "transfer",
      "outputs": [
        {
          "internalType": "bool",
          "name": "",
          "type": "bool"
        }
      ],
      "stateMutability": "nonpayable",
      "type": "function"
    },
    {
      "inputs": [
        {
          "internalType": "address",
          "name": "receiver",
          "type": "address"
        },
        {
          "internalType": "uint256",
          "name": "numTokens",
          "type": "uint256"
        }
      ],
      "name": "transferFromOwner",
      "outputs": [
        {
          "internalType": "bool",
          "name": "",
          "type": "bool"
        }
      ],
      "stateMutability": "nonpayable",
      "type": "function"
    },
    {
      "inputs": [
        {
          "internalType": "address",
          "name": "delegate",
          "type": "address"
        },
        {
          "internalType": "uint256",
          "name": "numTokens",
          "type": "uint256"
        }
      ],
      "name": "approve",
      "outputs": [
        {
          "internalType": "bool",
          "name": "",
          "type": "bool"
        }
      ],
      "stateMutability": "nonpayable",
      "type": "function"
    },
    {
      "inputs": [
        {
          "internalType": "address",
          "name": "owner",
          "type": "address"
        },
        {
          "internalType": "address",
          "name": "delegate",
          "type": "address"
        }
      ],
      "name": "allowance",
      "outputs": [
        {
          "internalType": "uint256",
          "name": "",
          "type": "uint256"
        }
      ],
      "stateMutability": "view",
      "type": "function"
    },
    {
      "inputs": [
        {
          "internalType": "address",
          "name": "owner",
          "type": "address"
        },
        {
          "internalType": "address",
          "name": "buyer",
          "type": "address"
        },
        {
          "internalType": "uint256",
          "name": "numTokens",
          "type": "uint256"
        }
      ],
      "name": "transferFrom",
      "outputs": [
        {
          "internalType": "bool",
          "name": "",
          "type": "bool"
        }
      ],
      "stateMutability": "nonpayable",
      "type": "function"
    },
    {
      "inputs": [
        {
          "internalType": "address",
          "name": "receiver",
          "type": "address"
        },
        {
          "internalType": "uint256",
          "name": "numTokens",
          "type": "uint256"
        }
      ],
      "name": "SendHeathereum",
      "outputs": [],
      "stateMutability": "nonpayable",
      "type": "function"
    }
  ],
  "bytecode": "0x608060405234801561001057600080fd5b50600080546001600160a01b031916339081178255674563918244f400006003819055908252600160205260409091205561083b806100506000396000f3fe608060405234801561001057600080fd5b50600436106100a95760003560e01c8063313ce56711610071578063313ce567146101485780636c89b1e81461016257806370a082311461017757806395d89b41146101a0578063a9059cbb146101c2578063dd62ed3e146101d557600080fd5b806306fdde03146100ae578063095ea7b3146100ed5780630f18ac071461011057806318160ddd1461012357806323b872dd14610135575b600080fd5b6100d76040518060400160405280600a8152602001694865617468657265756d60b01b81525081565b6040516100e49190610674565b60405180910390f35b6101006100fb3660046106e5565b61020e565b60405190151581526020016100e4565b61010061011e3660046106e5565b61027a565b6003545b6040519081526020016100e4565b61010061014336600461070f565b610337565b610150600081565b60405160ff90911681526020016100e4565b6101756101703660046106e5565b61047b565b005b61012761018536600461074b565b6001600160a01b031660009081526001602052604090205490565b6100d760405180604001604052806003815260200162090a8960eb1b81525081565b6101006101d03660046106e5565b6105d1565b6101276101e336600461076d565b6001600160a01b03918216600090815260026020908152604080832093909416825291909152205490565b3360008181526002602090815260408083206001600160a01b038716808552925280832085905551919290917f8c5be1e5ebec7d5bd14f71427d1e84f3dd0314c0f7b2291e5b200ac8c7c3b925906102699086815260200190565b60405180910390a350600192915050565b600080546001600160a01b031681526001602052604081205482111561029f57600080fd5b600080546001600160a01b03168152600160205260409020546102c39083906107b6565b600080546001600160a01b03908116825260016020526040808320939093558516815220546102f39083906107cd565b6001600160a01b03808516600081815260016020526040808220949094555492519092909116906000805160206107e6833981519152906102699086815260200190565b6001600160a01b03831660009081526001602052604081205482111561035c57600080fd5b6001600160a01b038416600090815260026020908152604080832033845290915290205482111561038c57600080fd5b6001600160a01b0384166000908152600160205260409020546103b09083906107b6565b6001600160a01b03851660009081526001602090815260408083209390935560028152828220338352905220546103e89083906107b6565b6001600160a01b0380861660009081526002602090815260408083203384528252808320949094559186168152600190915220546104279083906107cd565b6001600160a01b0380851660008181526001602052604090819020939093559151908616906000805160206107e6833981519152906104699086815260200190565b60405180910390a35060019392505050565b6000546001600160a01b031633146104d95760405162461bcd60e51b815260206004820181905260248201527f4f6e6c79206f776e657220697320616c6c6f77656420746f2061697264726f70604482015260640160405180910390fd5b60648111156104e757600080fd5b600080546001600160a01b0316815260016020526040902054811061050b57600080fd5b6001600160a01b03821660009081526001602052604090205461052e5780610552565b6001600160a01b0382166000908152600160205260409020546105529082906107cd565b6001600160a01b03808416600090815260016020526040808220939093558054909116815220546105849082906107b6565b600080546001600160a01b039081168252600160209081526040808420949094559154925184815285821693909116916000805160206107e6833981519152910160405180910390a35050565b336000908152600160205260408120548211156105ed57600080fd5b336000908152600160205260409020546106089083906107b6565b33600090815260016020526040808220929092556001600160a01b038516815220546106359083906107cd565b6001600160a01b0384166000818152600160205260409081902092909255905133906000805160206107e6833981519152906102699086815260200190565b600060208083528351808285015260005b818110156106a157858101830151858201604001528201610685565b818111156106b3576000604083870101525b50601f01601f1916929092016040019392505050565b80356001600160a01b03811681146106e057600080fd5b919050565b600080604083850312156106f857600080fd5b610701836106c9565b946020939093013593505050565b60008060006060848603121561072457600080fd5b61072d846106c9565b925061073b602085016106c9565b9150604084013590509250925092565b60006020828403121561075d57600080fd5b610766826106c9565b9392505050565b6000806040838503121561078057600080fd5b610789836106c9565b9150610797602084016106c9565b90509250929050565b634e487b7160e01b600052601160045260246000fd5b6000828210156107c8576107c86107a0565b500390565b600082198211156107e0576107e06107a0565b50019056feddf252ad1be2c89b69c2b068fc378daa952ba7f163c4a11628f55a4df523b3efa2646970667358221220ecb0b13435475d40c729d3135745cc53cca9f9bf283b2b6acafa7041199ed22664736f6c634300080d0033",
  "immutableReferences": {},
  "source": "pragma solidity ^0.8.0;\n\ninterface IERC20 {\n\n    function totalSupply() external view returns (uint256);\n    function balanceOf(address account) external view returns (uint256);\n    function allowance(address owner, address spender) external view returns (uint256);\n\n    function transfer(address recipient, uint256 amount) external returns (bool);\n    function approve(address spender, uint256 amount) external returns (bool);\n    function transferFrom(address sender, address recipient, uint256 amount) external returns (bool);\n\n\n    event Transfer(address indexed from, address indexed to, uint256 value);\n    event Approval(address indexed owner, address indexed spender, uint256 value);\n}\n\n\ncontract ERC20Basic is IERC20 {\n\n    string public constant name = \"Heathereum\";\n    string public constant symbol = \"HTH\";\n    uint8 public constant decimals = 0;\n    address HthOwner;\n\n\n    mapping(address => uint256) balances;\n\n    mapping(address => mapping (address => uint256)) allowed;\n\n    uint256 totalAmount;\n\n   constructor() {\n    HthOwner = msg.sender;\n    totalAmount = 50000*10**14;\n    balances[msg.sender] = totalAmount;\n    }\n\n    modifier onlyOwner(){\n    require(msg.sender == HthOwner,\"Only owner is allowed to airdrop\");\n    _;\n    }\n\n    function totalSupply() public override view returns (uint256) {\n    return totalAmount;\n    }\n\n    function balanceOf(address tokenOwner) public override view returns (uint256) {\n        return balances[tokenOwner];\n    }\n\n    function transfer(address receiver, uint256 numTokens) public override returns (bool) {\n        require(numTokens <= balances[msg.sender]);\n        balances[msg.sender] = balances[msg.sender]-numTokens;\n        balances[receiver] = balances[receiver]+numTokens;\n        emit Transfer(msg.sender, receiver, numTokens);\n        return true;\n    }\n\n    function transferFromOwner(address receiver,uint256 numTokens) public returns (bool) {\n        require(numTokens <= balances[HthOwner]);\n        balances[HthOwner] = balances[HthOwner] - numTokens;\n        balances[receiver] = balances[receiver] + numTokens;\n        emit Transfer(HthOwner,receiver,numTokens);\n        return true;\n    }\n\n    function approve(address delegate, uint256 numTokens) public override returns (bool) {\n        allowed[msg.sender][delegate] = numTokens;\n        emit Approval(msg.sender, delegate, numTokens);\n        return true;\n    }\n\n    function allowance(address owner, address delegate) public override view returns (uint) {\n        return allowed[owner][delegate];\n    }\n\n    function transferFrom(address owner, address buyer, uint256 numTokens) public override returns (bool) {\n        require(numTokens <= balances[owner]);\n        require(numTokens <= allowed[owner][msg.sender]);\n\n        balances[owner] = balances[owner]-numTokens;\n        allowed[owner][msg.sender] = allowed[owner][msg.sender]-numTokens;\n        balances[buyer] = balances[buyer]+numTokens;\n        emit Transfer(owner, buyer, numTokens);\n        return true;\n    }\n\n    function SendHeathereum(address receiver,uint256 numTokens) onlyOwner public {\n        require(numTokens <= 100);\n        require(balances[HthOwner] > numTokens);\n        balances[receiver] = balances[receiver] > 0 ? balances[receiver] + numTokens:numTokens;\n        balances[HthOwner] = balances[HthOwner] - numTokens;\n        emit Transfer(HthOwner, receiver, numTokens);\n    }\n\n}\n",
  "sourcePath": "/Users/ankitshetty/Code/course-work/sem-2/cse526-blockchain/bid-wicket/bidwicket-contract/contracts/ERC20.sol",
  "compiler": {
    "name": "solc",
    "version": "0.8.13+commit.abaa5c0e.Emscripten.clang"
  },
  "schemaVersion": "3.4.6",
  "updatedAt": "2022-05-08T20:53:41.274Z",
  "devdoc": {
    "kind": "dev",
    "methods": {},
    "version": 1
  },
  "userdoc": {
    "kind": "user",
    "methods": {},
    "version": 1
  }
}