{
  "contractName": "ERC20Basic",
  "abi": [
    {
      "inputs": [],
      "stateMutability": "nonpayable",
      "type": "constructor"
    },
    {
      "anonymous": false,
      "inputs": [
        {
          "indexed": true,
          "internalType": "address",
          "name": "owner",
          "type": "address"
        },
        {
          "indexed": true,
          "internalType": "address",
          "name": "spender",
          "type": "address"
        },
        {
          "indexed": false,
          "internalType": "uint256",
          "name": "value",
          "type": "uint256"
        }
      ],
      "name": "Approval",
      "type": "event"
    },
    {
      "anonymous": false,
      "inputs": [
        {
          "indexed": true,
          "internalType": "address",
          "name": "from",
          "type": "address"
        },
        {
          "indexed": true,
          "internalType": "address",
          "name": "to",
          "type": "address"
        },
        {
          "indexed": false,
          "internalType": "uint256",
          "name": "value",
          "type": "uint256"
        }
      ],
      "name": "Transfer",
      "type": "event"
    },
    {
      "inputs": [],
      "name": "decimals",
      "outputs": [
        {
          "internalType": "uint8",
          "name": "",
          "type": "uint8"
        }
      ],
      "stateMutability": "view",
      "type": "function",
      "constant": true
    },
    {
      "inputs": [],
      "name": "name",
      "outputs": [
        {
          "internalType": "string",
          "name": "",
          "type": "string"
        }
      ],
      "stateMutability": "view",
      "type": "function",
      "constant": true
    },
    {
      "inputs": [],
      "name": "symbol",
      "outputs": [
        {
          "internalType": "string",
          "name": "",
          "type": "string"
        }
      ],
      "stateMutability": "view",
      "type": "function",
      "constant": true
    },
    {
      "inputs": [],
      "name": "totalSupply",
      "outputs": [
        {
          "internalType": "uint256",
          "name": "",
          "type": "uint256"
        }
      ],
      "stateMutability": "view",
      "type": "function",
      "constant": true
    },
    {
      "inputs": [
        {
          "internalType": "address",
          "name": "tokenOwner",
          "type": "address"
        }
      ],
      "name": "balanceOf",
      "outputs": [
        {
          "internalType": "uint256",
          "name": "",
          "type": "uint256"
        }
      ],
      "stateMutability": "view",
      "type": "function",
      "constant": true
    },
    {
      "inputs": [
        {
          "internalType": "address",
          "name": "receiver",
          "type": "address"
        },
        {
          "internalType": "uint256",
          "name": "numTokens",
          "type": "uint256"
        }
      ],
      "name": "transfer",
      "outputs": [
        {
          "internalType": "bool",
          "name": "",
          "type": "bool"
        }
      ],
      "stateMutability": "nonpayable",
      "type": "function"
    },
    {
      "inputs": [
        {
          "internalType": "address",
          "name": "receiver",
          "type": "address"
        },
        {
          "internalType": "uint256",
          "name": "numTokens",
          "type": "uint256"
        }
      ],
      "name": "transferFromOwner",
      "outputs": [
        {
          "internalType": "bool",
          "name": "",
          "type": "bool"
        }
      ],
      "stateMutability": "nonpayable",
      "type": "function"
    },
    {
      "inputs": [
        {
          "internalType": "address",
          "name": "delegate",
          "type": "address"
        },
        {
          "internalType": "uint256",
          "name": "numTokens",
          "type": "uint256"
        }
      ],
      "name": "approve",
      "outputs": [
        {
          "internalType": "bool",
          "name": "",
          "type": "bool"
        }
      ],
      "stateMutability": "nonpayable",
      "type": "function"
    },
    {
      "inputs": [
        {
          "internalType": "address",
          "name": "receiver",
          "type": "address"
        },
        {
          "internalType": "uint256",
          "name": "numTokens",
          "type": "uint256"
        }
      ],
      "name": "sendHeathereum",
      "outputs": [],
      "stateMutability": "nonpayable",
      "type": "function"
    }
  ],
  "bytecode": "0x608060405234801561001057600080fd5b50600080546001600160a01b031916339081178255674563918244f400006003819055908252600160205260409091205561063c806100506000396000f3fe608060405234801561001057600080fd5b50600436106100935760003560e01c80632876852d116100665780632876852d1461011f578063313ce5671461013457806370a082311461014e57806395d89b4114610177578063a9059cbb1461019957600080fd5b806306fdde0314610098578063095ea7b3146100d75780630f18ac07146100fa57806318160ddd1461010d575b600080fd5b6100c16040518060400160405280600a8152602001694865617468657265756d60b01b81525081565b6040516100ce9190610504565b60405180910390f35b6100ea6100e5366004610575565b6101ac565b60405190151581526020016100ce565b6100ea610108366004610575565b610218565b6003545b6040519081526020016100ce565b61013261012d366004610575565b6102e7565b005b61013c600081565b60405160ff90911681526020016100ce565b61011161015c36600461059f565b6001600160a01b031660009081526001602052604090205490565b6100c160405180604001604052806003815260200162090a8960eb1b81525081565b6100ea6101a7366004610575565b61044f565b3360008181526002602090815260408083206001600160a01b038716808552925280832085905551919290917f8c5be1e5ebec7d5bd14f71427d1e84f3dd0314c0f7b2291e5b200ac8c7c3b925906102079086815260200190565b60405180910390a350600192915050565b600080546001600160a01b031681526001602052604081205482111561023d57600080fd5b600080546001600160a01b03168152600160205260409020546102619083906105d7565b600080546001600160a01b03908116825260016020526040808320939093558516815220546102919083906105ee565b6001600160a01b03808516600081815260016020526040808220949094555492519092909116907fddf252ad1be2c89b69c2b068fc378daa952ba7f163c4a11628f55a4df523b3ef906102079086815260200190565b6000546001600160a01b031633146103455760405162461bcd60e51b815260206004820181905260248201527f4f6e6c79206f776e657220697320616c6c6f77656420746f2061697264726f70604482015260640160405180910390fd5b606481111561035357600080fd5b600080546001600160a01b0316815260016020526040902054811061037757600080fd5b6001600160a01b03821660009081526001602052604090205461039a57806103be565b6001600160a01b0382166000908152600160205260409020546103be9082906105ee565b6001600160a01b03808416600090815260016020526040808220939093558054909116815220546103f09082906105d7565b600080546001600160a01b039081168252600160209081526040808420949094559154925184815285821693909116917fddf252ad1be2c89b69c2b068fc378daa952ba7f163c4a11628f55a4df523b3ef910160405180910390a35050565b3360009081526001602052604081205482111561046b57600080fd5b336000908152600160205260409020546104869083906105d7565b33600090815260016020526040808220929092556001600160a01b038516815220546104b39083906105ee565b6001600160a01b0384166000818152600160205260409081902092909255905133907fddf252ad1be2c89b69c2b068fc378daa952ba7f163c4a11628f55a4df523b3ef906102079086815260200190565b600060208083528351808285015260005b8181101561053157858101830151858201604001528201610515565b81811115610543576000604083870101525b50601f01601f1916929092016040019392505050565b80356001600160a01b038116811461057057600080fd5b919050565b6000806040838503121561058857600080fd5b61059183610559565b946020939093013593505050565b6000602082840312156105b157600080fd5b6105ba82610559565b9392505050565b634e487b7160e01b600052601160045260246000fd5b6000828210156105e9576105e96105c1565b500390565b60008219821115610601576106016105c1565b50019056fea2646970667358221220b299800af0dd128bc12d387355d644976b3c91d14de537113f2fd60d86508fb964736f6c634300080d0033",
  "immutableReferences": {},
  "source": "pragma solidity ^0.8.0;\n\ninterface IERC20 {\n\n    function totalSupply() external view returns (uint256);\n    function balanceOf(address account) external view returns (uint256);\n\n    function transfer(address recipient, uint256 amount) external returns (bool);\n    function approve(address spender, uint256 amount) external returns (bool);\n\n    event Transfer(address indexed from, address indexed to, uint256 value);\n    event Approval(address indexed owner, address indexed spender, uint256 value);\n}\n\n\ncontract ERC20Basic is IERC20 {\n\n    string public constant name = \"Heathereum\";\n    string public constant symbol = \"HTH\";\n    uint8 public constant decimals = 0;\n    address HthOwner;\n\n\n    mapping(address => uint256) balances;\n\n    mapping(address => mapping (address => uint256)) allowed;\n\n    uint256 totalAmount;\n\n   constructor() {\n    HthOwner = msg.sender;\n    totalAmount = 50000*10**14;\n    balances[msg.sender] = totalAmount;\n    }\n\n    modifier onlyOwner(){\n    require(msg.sender == HthOwner,\"Only owner is allowed to airdrop\");\n    _;\n    }\n\n    function totalSupply() public override view returns (uint256) {\n    return totalAmount;\n    }\n\n    function balanceOf(address tokenOwner) public override view returns (uint256) {\n        return balances[tokenOwner];\n    }\n\n    function transfer(address receiver, uint256 numTokens) public override returns (bool) {\n        require(numTokens <= balances[msg.sender]);\n        balances[msg.sender] = balances[msg.sender]-numTokens;\n        balances[receiver] = balances[receiver]+numTokens;\n        emit Transfer(msg.sender, receiver, numTokens);\n        return true;\n    }\n\n    function transferFromOwner(address receiver,uint256 numTokens) public returns (bool) {\n        require(numTokens <= balances[HthOwner]);\n        balances[HthOwner] = balances[HthOwner] - numTokens;\n        balances[receiver] = balances[receiver] + numTokens;\n        emit Transfer(HthOwner,receiver,numTokens);\n        return true;\n    }\n\n    function approve(address delegate, uint256 numTokens) public override returns (bool) {\n        allowed[msg.sender][delegate] = numTokens;\n        emit Approval(msg.sender, delegate, numTokens);\n        return true;\n    }\n\n    function sendHeathereum(address receiver,uint256 numTokens) onlyOwner public {\n        require(numTokens <= 100);\n        require(balances[HthOwner] > numTokens);\n        balances[receiver] = balances[receiver] > 0 ? balances[receiver] + numTokens:numTokens;\n        balances[HthOwner] = balances[HthOwner] - numTokens;\n        emit Transfer(HthOwner, receiver, numTokens);\n    }\n\n}\n",
  "sourcePath": "/Users/ankitshetty/Code/course-work/sem-2/cse526-blockchain/bid-wicket/bidwicket-contract/contracts/ERC20.sol",
  "compiler": {
    "name": "solc",
    "version": "0.8.13+commit.abaa5c0e.Emscripten.clang"
  },
  "schemaVersion": "3.4.6",
  "updatedAt": "2022-05-08T21:23:01.111Z",
  "networkType": "ethereum",
  "devdoc": {
    "kind": "dev",
    "methods": {},
    "version": 1
  },
  "userdoc": {
    "kind": "user",
    "methods": {},
    "version": 1
  }
}