{
  "contractName": "ERC20Basic",
  "abi": [
    {
      "inputs": [],
      "stateMutability": "nonpayable",
      "type": "constructor"
    },
    {
      "anonymous": false,
      "inputs": [
        {
          "indexed": true,
          "internalType": "address",
          "name": "owner",
          "type": "address"
        },
        {
          "indexed": true,
          "internalType": "address",
          "name": "spender",
          "type": "address"
        },
        {
          "indexed": false,
          "internalType": "uint256",
          "name": "value",
          "type": "uint256"
        }
      ],
      "name": "Approval",
      "type": "event"
    },
    {
      "anonymous": false,
      "inputs": [
        {
          "indexed": true,
          "internalType": "address",
          "name": "from",
          "type": "address"
        },
        {
          "indexed": true,
          "internalType": "address",
          "name": "to",
          "type": "address"
        },
        {
          "indexed": false,
          "internalType": "uint256",
          "name": "value",
          "type": "uint256"
        }
      ],
      "name": "Transfer",
      "type": "event"
    },
    {
      "inputs": [],
      "name": "decimals",
      "outputs": [
        {
          "internalType": "uint8",
          "name": "",
          "type": "uint8"
        }
      ],
      "stateMutability": "view",
      "type": "function",
      "constant": true
    },
    {
      "inputs": [],
      "name": "name",
      "outputs": [
        {
          "internalType": "string",
          "name": "",
          "type": "string"
        }
      ],
      "stateMutability": "view",
      "type": "function",
      "constant": true
    },
    {
      "inputs": [],
      "name": "symbol",
      "outputs": [
        {
          "internalType": "string",
          "name": "",
          "type": "string"
        }
      ],
      "stateMutability": "view",
      "type": "function",
      "constant": true
    },
    {
      "inputs": [],
      "name": "totalSupply",
      "outputs": [
        {
          "internalType": "uint256",
          "name": "",
          "type": "uint256"
        }
      ],
      "stateMutability": "view",
      "type": "function",
      "constant": true
    },
    {
      "inputs": [
        {
          "internalType": "address",
          "name": "tokenOwner",
          "type": "address"
        }
      ],
      "name": "balanceOf",
      "outputs": [
        {
          "internalType": "uint256",
          "name": "",
          "type": "uint256"
        }
      ],
      "stateMutability": "view",
      "type": "function",
      "constant": true
    },
    {
      "inputs": [
        {
          "internalType": "address",
          "name": "receiver",
          "type": "address"
        },
        {
          "internalType": "uint256",
          "name": "numTokens",
          "type": "uint256"
        }
      ],
      "name": "transfer",
      "outputs": [
        {
          "internalType": "bool",
          "name": "",
          "type": "bool"
        }
      ],
      "stateMutability": "nonpayable",
      "type": "function"
    },
    {
      "inputs": [
        {
          "internalType": "address",
          "name": "delegate",
          "type": "address"
        },
        {
          "internalType": "uint256",
          "name": "numTokens",
          "type": "uint256"
        }
      ],
      "name": "approve",
      "outputs": [
        {
          "internalType": "bool",
          "name": "",
          "type": "bool"
        }
      ],
      "stateMutability": "nonpayable",
      "type": "function"
    },
    {
      "inputs": [
        {
          "internalType": "address",
          "name": "owner",
          "type": "address"
        },
        {
          "internalType": "address",
          "name": "delegate",
          "type": "address"
        }
      ],
      "name": "allowance",
      "outputs": [
        {
          "internalType": "uint256",
          "name": "",
          "type": "uint256"
        }
      ],
      "stateMutability": "view",
      "type": "function",
      "constant": true
    },
    {
      "inputs": [
        {
          "internalType": "address",
          "name": "owner",
          "type": "address"
        },
        {
          "internalType": "address",
          "name": "buyer",
          "type": "address"
        },
        {
          "internalType": "uint256",
          "name": "numTokens",
          "type": "uint256"
        }
      ],
      "name": "transferFrom",
      "outputs": [
        {
          "internalType": "bool",
          "name": "",
          "type": "bool"
        }
      ],
      "stateMutability": "nonpayable",
      "type": "function"
    },
    {
      "inputs": [
        {
          "internalType": "uint256",
          "name": "numTokens",
          "type": "uint256"
        }
      ],
      "name": "getHeathereum",
      "outputs": [],
      "stateMutability": "nonpayable",
      "type": "function"
    }
  ],
  "bytecode": "0x608060405234801561001057600080fd5b50600080546001600160a01b0319163390811782556601c6bf52634000600381905590825260016020526040909120556106d58061004f6000396000f3fe608060405234801561001057600080fd5b506004361061009e5760003560e01c806332d103731161006657806332d103731461014457806370a082311461015957806395d89b4114610182578063a9059cbb146101a4578063dd62ed3e146101b757600080fd5b806306fdde03146100a3578063095ea7b3146100e257806318160ddd1461010557806323b872dd14610117578063313ce5671461012a575b600080fd5b6100cc6040518060400160405280600a8152602001694865617468657265756d60b01b81525081565b6040516100d99190610515565b60405180910390f35b6100f56100f0366004610586565b6101f0565b60405190151581526020016100d9565b6003545b6040519081526020016100d9565b6100f56101253660046105b0565b61025c565b610132600481565b60405160ff90911681526020016100d9565b6101576101523660046105ec565b6103b2565b005b610109610167366004610605565b6001600160a01b031660009081526001602052604090205490565b6100cc60405180604001604052806003815260200162090a8960eb1b81525081565b6100f56101b2366004610586565b610460565b6101096101c5366004610627565b6001600160a01b03918216600090815260026020908152604080832093909416825291909152205490565b3360008181526002602090815260408083206001600160a01b038716808552925280832085905551919290917f8c5be1e5ebec7d5bd14f71427d1e84f3dd0314c0f7b2291e5b200ac8c7c3b9259061024b9086815260200190565b60405180910390a350600192915050565b6001600160a01b03831660009081526001602052604081205482111561028157600080fd5b6001600160a01b03841660009081526002602090815260408083203384529091529020548211156102b157600080fd5b6001600160a01b0384166000908152600160205260409020546102d5908390610670565b6001600160a01b038516600090815260016020908152604080832093909355600281528282203383529052205461030d908390610670565b6001600160a01b03808616600090815260026020908152604080832033845282528083209490945591861681526001909152205461034c908390610687565b6001600160a01b0380851660008181526001602052604090819020939093559151908616907fddf252ad1be2c89b69c2b068fc378daa952ba7f163c4a11628f55a4df523b3ef906103a09086815260200190565b60405180910390a35060019392505050565b600080546001600160a01b031681526001602052604090205481106103d657600080fd5b3360009081526001602052604080822083905581546001600160a01b03168252902054610404908290610670565b600080546001600160a01b03908116825260016020908152604080842094909455915492518481523393909116917fddf252ad1be2c89b69c2b068fc378daa952ba7f163c4a11628f55a4df523b3ef910160405180910390a350565b3360009081526001602052604081205482111561047c57600080fd5b33600090815260016020526040902054610497908390610670565b33600090815260016020526040808220929092556001600160a01b038516815220546104c4908390610687565b6001600160a01b0384166000818152600160205260409081902092909255905133907fddf252ad1be2c89b69c2b068fc378daa952ba7f163c4a11628f55a4df523b3ef9061024b9086815260200190565b600060208083528351808285015260005b8181101561054257858101830151858201604001528201610526565b81811115610554576000604083870101525b50601f01601f1916929092016040019392505050565b80356001600160a01b038116811461058157600080fd5b919050565b6000806040838503121561059957600080fd5b6105a28361056a565b946020939093013593505050565b6000806000606084860312156105c557600080fd5b6105ce8461056a565b92506105dc6020850161056a565b9150604084013590509250925092565b6000602082840312156105fe57600080fd5b5035919050565b60006020828403121561061757600080fd5b6106208261056a565b9392505050565b6000806040838503121561063a57600080fd5b6106438361056a565b91506106516020840161056a565b90509250929050565b634e487b7160e01b600052601160045260246000fd5b6000828210156106825761068261065a565b500390565b6000821982111561069a5761069a61065a565b50019056fea2646970667358221220eedd6a48223334230fd7dc0c3ad562e08076fd297337729391918984f91834d164736f6c634300080d0033",
  "immutableReferences": {},
  "source": "pragma solidity ^0.8.0;\n\ninterface IERC20 {\n\n    function totalSupply() external view returns (uint256);\n    function balanceOf(address account) external view returns (uint256);\n    function allowance(address owner, address spender) external view returns (uint256);\n\n    function transfer(address recipient, uint256 amount) external returns (bool);\n    function approve(address spender, uint256 amount) external returns (bool);\n    function transferFrom(address sender, address recipient, uint256 amount) external returns (bool);\n\n\n    event Transfer(address indexed from, address indexed to, uint256 value);\n    event Approval(address indexed owner, address indexed spender, uint256 value);\n}\n\n\ncontract ERC20Basic is IERC20 {\n\n    string public constant name = \"Heathereum\";\n    string public constant symbol = \"HTH\";\n    uint8 public constant decimals = 4;\n    address HthOwner;\n\n\n    mapping(address => uint256) balances;\n\n    mapping(address => mapping (address => uint256)) allowed;\n\n    uint256 totalAmount;\n\n   constructor() {\n    HthOwner = msg.sender;\n    totalAmount = 5*10**14;\n    balances[msg.sender] = totalAmount;\n    }\n\n    function totalSupply() public override view returns (uint256) {\n    return totalAmount;\n    }\n\n    function balanceOf(address tokenOwner) public override view returns (uint256) {\n        return balances[tokenOwner];\n    }\n\n    function transfer(address receiver, uint256 numTokens) public override returns (bool) {\n        require(numTokens <= balances[msg.sender]);\n        balances[msg.sender] = balances[msg.sender]-numTokens;\n        balances[receiver] = balances[receiver]+numTokens;\n        emit Transfer(msg.sender, receiver, numTokens);\n        return true;\n    }\n\n    function approve(address delegate, uint256 numTokens) public override returns (bool) {\n        allowed[msg.sender][delegate] = numTokens;\n        emit Approval(msg.sender, delegate, numTokens);\n        return true;\n    }\n\n    function allowance(address owner, address delegate) public override view returns (uint) {\n        return allowed[owner][delegate];\n    }\n\n    function transferFrom(address owner, address buyer, uint256 numTokens) public override returns (bool) {\n        require(numTokens <= balances[owner]);\n        require(numTokens <= allowed[owner][msg.sender]);\n\n        balances[owner] = balances[owner]-numTokens;\n        allowed[owner][msg.sender] = allowed[owner][msg.sender]-numTokens;\n        balances[buyer] = balances[buyer]+numTokens;\n        emit Transfer(owner, buyer, numTokens);\n        return true;\n    }\n\n    function getHeathereum(uint256 numTokens) public {\n        require(balances[HthOwner] > numTokens);\n        balances[msg.sender] = numTokens;\n        balances[HthOwner] = balances[HthOwner] - numTokens;\n        emit Transfer(HthOwner, msg.sender, numTokens);\n    }\n\n}\n",
  "sourcePath": "/Users/ankitshetty/Code/course-work/sem-2/cse526-blockchain/bid-wicket/bidwicket-contract/contracts/ERC20.sol",
  "compiler": {
    "name": "solc",
    "version": "0.8.13+commit.abaa5c0e.Emscripten.clang"
  },
  "schemaVersion": "3.4.6",
  "updatedAt": "2022-05-08T00:03:50.918Z",
  "networkType": "ethereum",
  "devdoc": {
    "kind": "dev",
    "methods": {},
    "version": 1
  },
  "userdoc": {
    "kind": "user",
    "methods": {},
    "version": 1
  }
}